{
  "contractName": "myCounter",
  "abi": [
    {
      "inputs": [],
      "name": "increase",
      "outputs": [
        {
          "internalType": "uint256",
          "name": "",
          "type": "uint256"
        }
      ],
      "stateMutability": "nonpayable",
      "type": "function"
    }
  ],
  "bytecode": "0x608060405234801561001057600080fd5b5060ed8061001f6000396000f3fe6080604052348015600f57600080fd5b506004361060285760003560e01c8063e8927fbc14602d575b600080fd5b60336047565b604051603e9190609e565b60405180910390f35b600080605260006063565b9050605c60006071565b8091505090565b600081600001549050919050565b6001816000016000828254019250508190555050565b6000819050919050565b6098816087565b82525050565b600060208201905060b160008301846091565b9291505056fea2646970667358221220a41272208d49be9a35c689520909bf63727f87aeb007d8e1eb04e8c515c4b3ea64736f6c634300080d0033",
  "immutableReferences": {},
  "source": "// contracts/GameItem.sol\n// SPDX-License-Identifier: MIT\npragma solidity ^0.8.0;\n\nimport \"@openzeppelin/contracts/utils/Counters.sol\";\n\ncontract myCounter {\n    using Counters for Counters.Counter;\n    Counters.Counter id;\n\n    function increase() public returns (uint256)\n    {\n        uint256 newID = id.current();\n        id.increment();\n        return newID;\n    }\n}\n",
  "sourcePath": "/home/ubuntu/tianxu/block_chain/vokaNFT/contracts/myCounter.sol",
  "compiler": {
    "name": "solc",
    "version": "0.8.13+commit.abaa5c0e.Emscripten.clang"
  },
  "schemaVersion": "3.4.7",
  "updatedAt": "2022-05-18T07:52:18.007Z",
  "networkType": "ethereum",
  "devdoc": {
    "kind": "dev",
    "methods": {},
    "version": 1
  },
  "userdoc": {
    "kind": "user",
    "methods": {},
    "version": 1
  }
}