{
  "contractName": "vokaNFT",
  "abi": [
    {
      "inputs": [],
      "stateMutability": "nonpayable",
      "type": "constructor"
    },
    {
      "anonymous": false,
      "inputs": [
        {
          "indexed": true,
          "internalType": "address",
          "name": "owner",
          "type": "address"
        },
        {
          "indexed": true,
          "internalType": "address",
          "name": "approved",
          "type": "address"
        },
        {
          "indexed": true,
          "internalType": "uint256",
          "name": "tokenId",
          "type": "uint256"
        }
      ],
      "name": "Approval",
      "type": "event"
    },
    {
      "anonymous": false,
      "inputs": [
        {
          "indexed": true,
          "internalType": "address",
          "name": "owner",
          "type": "address"
        },
        {
          "indexed": true,
          "internalType": "address",
          "name": "operator",
          "type": "address"
        },
        {
          "indexed": false,
          "internalType": "bool",
          "name": "approved",
          "type": "bool"
        }
      ],
      "name": "ApprovalForAll",
      "type": "event"
    },
    {
      "anonymous": false,
      "inputs": [
        {
          "indexed": true,
          "internalType": "address",
          "name": "from",
          "type": "address"
        },
        {
          "indexed": true,
          "internalType": "address",
          "name": "to",
          "type": "address"
        },
        {
          "indexed": true,
          "internalType": "uint256",
          "name": "tokenId",
          "type": "uint256"
        }
      ],
      "name": "Transfer",
      "type": "event"
    },
    {
      "inputs": [
        {
          "internalType": "address",
          "name": "to",
          "type": "address"
        },
        {
          "internalType": "uint256",
          "name": "tokenId",
          "type": "uint256"
        }
      ],
      "name": "approve",
      "outputs": [],
      "stateMutability": "nonpayable",
      "type": "function"
    },
    {
      "inputs": [
        {
          "internalType": "address",
          "name": "owner",
          "type": "address"
        }
      ],
      "name": "balanceOf",
      "outputs": [
        {
          "internalType": "uint256",
          "name": "",
          "type": "uint256"
        }
      ],
      "stateMutability": "view",
      "type": "function",
      "constant": true
    },
    {
      "inputs": [
        {
          "internalType": "uint256",
          "name": "tokenId",
          "type": "uint256"
        }
      ],
      "name": "getApproved",
      "outputs": [
        {
          "internalType": "address",
          "name": "",
          "type": "address"
        }
      ],
      "stateMutability": "view",
      "type": "function",
      "constant": true
    },
    {
      "inputs": [
        {
          "internalType": "address",
          "name": "owner",
          "type": "address"
        },
        {
          "internalType": "address",
          "name": "operator",
          "type": "address"
        }
      ],
      "name": "isApprovedForAll",
      "outputs": [
        {
          "internalType": "bool",
          "name": "",
          "type": "bool"
        }
      ],
      "stateMutability": "view",
      "type": "function",
      "constant": true
    },
    {
      "inputs": [],
      "name": "name",
      "outputs": [
        {
          "internalType": "string",
          "name": "",
          "type": "string"
        }
      ],
      "stateMutability": "view",
      "type": "function",
      "constant": true
    },
    {
      "inputs": [
        {
          "internalType": "uint256",
          "name": "tokenId",
          "type": "uint256"
        }
      ],
      "name": "ownerOf",
      "outputs": [
        {
          "internalType": "address",
          "name": "",
          "type": "address"
        }
      ],
      "stateMutability": "view",
      "type": "function",
      "constant": true
    },
    {
      "inputs": [
        {
          "internalType": "address",
          "name": "from",
          "type": "address"
        },
        {
          "internalType": "address",
          "name": "to",
          "type": "address"
        },
        {
          "internalType": "uint256",
          "name": "tokenId",
          "type": "uint256"
        }
      ],
      "name": "safeTransferFrom",
      "outputs": [],
      "stateMutability": "nonpayable",
      "type": "function"
    },
    {
      "inputs": [
        {
          "internalType": "address",
          "name": "from",
          "type": "address"
        },
        {
          "internalType": "address",
          "name": "to",
          "type": "address"
        },
        {
          "internalType": "uint256",
          "name": "tokenId",
          "type": "uint256"
        },
        {
          "internalType": "bytes",
          "name": "_data",
          "type": "bytes"
        }
      ],
      "name": "safeTransferFrom",
      "outputs": [],
      "stateMutability": "nonpayable",
      "type": "function"
    },
    {
      "inputs": [
        {
          "internalType": "address",
          "name": "operator",
          "type": "address"
        },
        {
          "internalType": "bool",
          "name": "approved",
          "type": "bool"
        }
      ],
      "name": "setApprovalForAll",
      "outputs": [],
      "stateMutability": "nonpayable",
      "type": "function"
    },
    {
      "inputs": [
        {
          "internalType": "bytes4",
          "name": "interfaceId",
          "type": "bytes4"
        }
      ],
      "name": "supportsInterface",
      "outputs": [
        {
          "internalType": "bool",
          "name": "",
          "type": "bool"
        }
      ],
      "stateMutability": "view",
      "type": "function",
      "constant": true
    },
    {
      "inputs": [],
      "name": "symbol",
      "outputs": [
        {
          "internalType": "string",
          "name": "",
          "type": "string"
        }
      ],
      "stateMutability": "view",
      "type": "function",
      "constant": true
    },
    {
      "inputs": [
        {
          "internalType": "uint256",
          "name": "tokenId",
          "type": "uint256"
        }
      ],
      "name": "tokenURI",
      "outputs": [
        {
          "internalType": "string",
          "name": "",
          "type": "string"
        }
      ],
      "stateMutability": "view",
      "type": "function",
      "constant": true
    },
    {
      "inputs": [
        {
          "internalType": "address",
          "name": "from",
          "type": "address"
        },
        {
          "internalType": "address",
          "name": "to",
          "type": "address"
        },
        {
          "internalType": "uint256",
          "name": "tokenId",
          "type": "uint256"
        }
      ],
      "name": "transferFrom",
      "outputs": [],
      "stateMutability": "nonpayable",
      "type": "function"
    },
    {
      "inputs": [
        {
          "internalType": "address",
          "name": "to",
          "type": "address"
        },
        {
          "internalType": "string",
          "name": "tokenURI",
          "type": "string"
        }
      ],
      "name": "createNFT",
      "outputs": [
        {
          "internalType": "uint256",
          "name": "",
          "type": "uint256"
        }
      ],
      "stateMutability": "nonpayable",
      "type": "function"
    },
    {
      "inputs": [
        {
          "internalType": "address",
          "name": "to",
          "type": "address"
        },
        {
          "internalType": "string[]",
          "name": "tokenURIArr",
          "type": "string[]"
        }
      ],
      "name": "createNFTArr",
      "outputs": [
        {
          "internalType": "uint256[]",
          "name": "",
          "type": "uint256[]"
        }
      ],
      "stateMutability": "nonpayable",
      "type": "function"
    }
  ],
  "bytecode": "0x60806040523480156200001157600080fd5b506040518060400160405280600781526020017f766f6b614e4654000000000000000000000000000000000000000000000000008152506040518060400160405280600281526020017f564b00000000000000000000000000000000000000000000000000000000000081525081600090816200008f919062000351565b508060019081620000a1919062000351565b505050620000bb6007620000c160201b62000c411760201c565b62000438565b6001816000016000828254019250508190555050565b600081519050919050565b7f4e487b7100000000000000000000000000000000000000000000000000000000600052604160045260246000fd5b7f4e487b7100000000000000000000000000000000000000000000000000000000600052602260045260246000fd5b600060028204905060018216806200015957607f821691505b6020821081036200016f576200016e62000111565b5b50919050565b60008190508160005260206000209050919050565b60006020601f8301049050919050565b600082821b905092915050565b600060088302620001d97fffffffffffffffffffffffffffffffffffffffffffffffffffffffffffffffff826200019a565b620001e586836200019a565b95508019841693508086168417925050509392505050565b6000819050919050565b6000819050919050565b6000620002326200022c6200022684620001fd565b62000207565b620001fd565b9050919050565b6000819050919050565b6200024e8362000211565b620002666200025d8262000239565b848454620001a7565b825550505050565b600090565b6200027d6200026e565b6200028a81848462000243565b505050565b5b81811015620002b257620002a660008262000273565b60018101905062000290565b5050565b601f8211156200030157620002cb8162000175565b620002d6846200018a565b81016020851015620002e6578190505b620002fe620002f5856200018a565b8301826200028f565b50505b505050565b600082821c905092915050565b6000620003266000198460080262000306565b1980831691505092915050565b600062000341838362000313565b9150826002028217905092915050565b6200035c82620000d7565b67ffffffffffffffff811115620003785762000377620000e2565b5b62000384825462000140565b62000391828285620002b6565b600060209050601f831160018114620003c95760008415620003b4578287015190505b620003c0858262000333565b86555062000430565b601f198416620003d98662000175565b60005b828110156200040357848901518255600182019150602085019450602081019050620003dc565b868310156200042357848901516200041f601f89168262000313565b8355505b6001600288020188555050505b505050505050565b61314180620004486000396000f3fe608060405234801561001057600080fd5b50600436106100f55760003560e01c80636352211e11610097578063a561403311610066578063a561403314610296578063b88d4fde146102c6578063c87b56dd146102e2578063e985e9c514610312576100f5565b80636352211e146101fc57806370a082311461022c57806395d89b411461025c578063a22cb4651461027a576100f5565b8063095ea7b3116100d3578063095ea7b31461017857806323b872dd146101945780632b9a42b2146101b057806342842e0e146101e0576100f5565b806301ffc9a7146100fa57806306fdde031461012a578063081812fc14610148575b600080fd5b610114600480360381019061010f9190611a05565b610342565b6040516101219190611a4d565b60405180910390f35b610132610424565b60405161013f9190611b01565b60405180910390f35b610162600480360381019061015d9190611b59565b6104b6565b60405161016f9190611bc7565b60405180910390f35b610192600480360381019061018d9190611c0e565b61053b565b005b6101ae60048036038101906101a99190611c4e565b610652565b005b6101ca60048036038101906101c59190611ebc565b6106b2565b6040516101d79190611fd6565b60405180910390f35b6101fa60048036038101906101f59190611c4e565b610793565b005b61021660048036038101906102119190611b59565b6107b3565b6040516102239190611bc7565b60405180910390f35b61024660048036038101906102419190611ff8565b610864565b6040516102539190612034565b60405180910390f35b61026461091b565b6040516102719190611b01565b60405180910390f35b610294600480360381019061028f919061207b565b6109ad565b005b6102b060048036038101906102ab91906120bb565b6109c3565b6040516102bd9190612034565b60405180910390f35b6102e060048036038101906102db91906121b8565b6109fa565b005b6102fc60048036038101906102f79190611b59565b610a5c565b6040516103099190611b01565b60405180910390f35b61032c6004803603810190610327919061223b565b610bad565b6040516103399190611a4d565b60405180910390f35b60007f80ac58cd000000000000000000000000000000000000000000000000000000007bffffffffffffffffffffffffffffffffffffffffffffffffffffffff1916827bffffffffffffffffffffffffffffffffffffffffffffffffffffffff1916148061040d57507f5b5e139f000000000000000000000000000000000000000000000000000000007bffffffffffffffffffffffffffffffffffffffffffffffffffffffff1916827bffffffffffffffffffffffffffffffffffffffffffffffffffffffff1916145b8061041d575061041c82610c57565b5b9050919050565b606060008054610433906122aa565b80601f016020809104026020016040519081016040528092919081815260200182805461045f906122aa565b80156104ac5780601f10610481576101008083540402835291602001916104ac565b820191906000526020600020905b81548152906001019060200180831161048f57829003601f168201915b5050505050905090565b60006104c182610cc1565b610500576040517f08c379a00000000000000000000000000000000000000000000000000000000081526004016104f79061234d565b60405180910390fd5b6004600083815260200190815260200160002060009054906101000a900473ffffffffffffffffffffffffffffffffffffffff169050919050565b6000610546826107b3565b90508073ffffffffffffffffffffffffffffffffffffffff168373ffffffffffffffffffffffffffffffffffffffff16036105b6576040517f08c379a00000000000000000000000000000000000000000000000000000000081526004016105ad906123df565b60405180910390fd5b8073ffffffffffffffffffffffffffffffffffffffff166105d5610d2d565b73ffffffffffffffffffffffffffffffffffffffff1614806106045750610603816105fe610d2d565b610bad565b5b610643576040517f08c379a000000000000000000000000000000000000000000000000000000000815260040161063a90612471565b60405180910390fd5b61064d8383610d35565b505050565b61066361065d610d2d565b82610dee565b6106a2576040517f08c379a000000000000000000000000000000000000000000000000000000000815260040161069990612503565b60405180910390fd5b6106ad838383610ecc565b505050565b60606000825167ffffffffffffffff8111156106d1576106d0611ca6565b5b6040519080825280602002602001820160405280156106ff5781602001602082028036833780820191505090505b50905060005b835181101561078857600061071a6007611132565b90506107268682611140565b61074a8186848151811061073d5761073c612523565b5b602002602001015161115e565b6107546007610c41565b8083838151811061076857610767612523565b5b60200260200101818152505050808061078090612581565b915050610705565b508091505092915050565b6107ae838383604051806020016040528060008152506109fa565b505050565b6000806002600084815260200190815260200160002060009054906101000a900473ffffffffffffffffffffffffffffffffffffffff169050600073ffffffffffffffffffffffffffffffffffffffff168173ffffffffffffffffffffffffffffffffffffffff160361085b576040517f08c379a00000000000000000000000000000000000000000000000000000000081526004016108529061263b565b60405180910390fd5b80915050919050565b60008073ffffffffffffffffffffffffffffffffffffffff168273ffffffffffffffffffffffffffffffffffffffff16036108d4576040517f08c379a00000000000000000000000000000000000000000000000000000000081526004016108cb906126cd565b60405180910390fd5b600360008373ffffffffffffffffffffffffffffffffffffffff1673ffffffffffffffffffffffffffffffffffffffff168152602001908152602001600020549050919050565b60606001805461092a906122aa565b80601f0160208091040260200160405190810160405280929190818152602001828054610956906122aa565b80156109a35780601f10610978576101008083540402835291602001916109a3565b820191906000526020600020905b81548152906001019060200180831161098657829003601f168201915b5050505050905090565b6109bf6109b8610d2d565b83836111cb565b5050565b6000806109d06007611132565b90506109dc8482611140565b6109e6818461115e565b6109f06007610c41565b8091505092915050565b610a0b610a05610d2d565b83610dee565b610a4a576040517f08c379a0000000000000000000000000000000000000000000000000000000008152600401610a4190612503565b60405180910390fd5b610a5684848484611337565b50505050565b6060610a6782610cc1565b610aa6576040517f08c379a0000000000000000000000000000000000000000000000000000000008152600401610a9d9061275f565b60405180910390fd5b6000600660008481526020019081526020016000208054610ac6906122aa565b80601f0160208091040260200160405190810160405280929190818152602001828054610af2906122aa565b8015610b3f5780601f10610b1457610100808354040283529160200191610b3f565b820191906000526020600020905b815481529060010190602001808311610b2257829003601f168201915b505050505090506000610b50611393565b90506000815103610b65578192505050610ba8565b600082511115610b9a578082604051602001610b829291906127bb565b60405160208183030381529060405292505050610ba8565b610ba3846113aa565b925050505b919050565b6000600560008473ffffffffffffffffffffffffffffffffffffffff1673ffffffffffffffffffffffffffffffffffffffff16815260200190815260200160002060008373ffffffffffffffffffffffffffffffffffffffff1673ffffffffffffffffffffffffffffffffffffffff16815260200190815260200160002060009054906101000a900460ff16905092915050565b6001816000016000828254019250508190555050565b60007f01ffc9a7000000000000000000000000000000000000000000000000000000007bffffffffffffffffffffffffffffffffffffffffffffffffffffffff1916827bffffffffffffffffffffffffffffffffffffffffffffffffffffffff1916149050919050565b60008073ffffffffffffffffffffffffffffffffffffffff166002600084815260200190815260200160002060009054906101000a900473ffffffffffffffffffffffffffffffffffffffff1673ffffffffffffffffffffffffffffffffffffffff1614159050919050565b600033905090565b816004600083815260200190815260200160002060006101000a81548173ffffffffffffffffffffffffffffffffffffffff021916908373ffffffffffffffffffffffffffffffffffffffff160217905550808273ffffffffffffffffffffffffffffffffffffffff16610da8836107b3565b73ffffffffffffffffffffffffffffffffffffffff167f8c5be1e5ebec7d5bd14f71427d1e84f3dd0314c0f7b2291e5b200ac8c7c3b92560405160405180910390a45050565b6000610df982610cc1565b610e38576040517f08c379a0000000000000000000000000000000000000000000000000000000008152600401610e2f90612851565b60405180910390fd5b6000610e43836107b3565b90508073ffffffffffffffffffffffffffffffffffffffff168473ffffffffffffffffffffffffffffffffffffffff161480610e855750610e848185610bad565b5b80610ec357508373ffffffffffffffffffffffffffffffffffffffff16610eab846104b6565b73ffffffffffffffffffffffffffffffffffffffff16145b91505092915050565b8273ffffffffffffffffffffffffffffffffffffffff16610eec826107b3565b73ffffffffffffffffffffffffffffffffffffffff1614610f42576040517f08c379a0000000000000000000000000000000000000000000000000000000008152600401610f39906128e3565b60405180910390fd5b600073ffffffffffffffffffffffffffffffffffffffff168273ffffffffffffffffffffffffffffffffffffffff1603610fb1576040517f08c379a0000000000000000000000000000000000000000000000000000000008152600401610fa890612975565b60405180910390fd5b610fbc838383611451565b610fc7600082610d35565b6001600360008573ffffffffffffffffffffffffffffffffffffffff1673ffffffffffffffffffffffffffffffffffffffff16815260200190815260200160002060008282546110179190612995565b925050819055506001600360008473ffffffffffffffffffffffffffffffffffffffff1673ffffffffffffffffffffffffffffffffffffffff168152602001908152602001600020600082825461106e91906129c9565b92505081905550816002600083815260200190815260200160002060006101000a81548173ffffffffffffffffffffffffffffffffffffffff021916908373ffffffffffffffffffffffffffffffffffffffff160217905550808273ffffffffffffffffffffffffffffffffffffffff168473ffffffffffffffffffffffffffffffffffffffff167fddf252ad1be2c89b69c2b068fc378daa952ba7f163c4a11628f55a4df523b3ef60405160405180910390a461112d838383611456565b505050565b600081600001549050919050565b61115a82826040518060200160405280600081525061145b565b5050565b61116782610cc1565b6111a6576040517f08c379a000000000000000000000000000000000000000000000000000000000815260040161119d90612a91565b60405180910390fd5b806006600084815260200190815260200160002090816111c69190612c5d565b505050565b8173ffffffffffffffffffffffffffffffffffffffff168373ffffffffffffffffffffffffffffffffffffffff1603611239576040517f08c379a000000000000000000000000000000000000000000000000000000000815260040161123090612d7b565b60405180910390fd5b80600560008573ffffffffffffffffffffffffffffffffffffffff1673ffffffffffffffffffffffffffffffffffffffff16815260200190815260200160002060008473ffffffffffffffffffffffffffffffffffffffff1673ffffffffffffffffffffffffffffffffffffffff16815260200190815260200160002060006101000a81548160ff0219169083151502179055508173ffffffffffffffffffffffffffffffffffffffff168373ffffffffffffffffffffffffffffffffffffffff167f17307eab39ab6107e8899845ad3d59bd9653f200f220920489ca2b5937696c318360405161132a9190611a4d565b60405180910390a3505050565b611342848484610ecc565b61134e848484846114b6565b61138d576040517f08c379a000000000000000000000000000000000000000000000000000000000815260040161138490612e0d565b60405180910390fd5b50505050565b606060405180602001604052806000815250905090565b60606113b582610cc1565b6113f4576040517f08c379a00000000000000000000000000000000000000000000000000000000081526004016113eb90612e9f565b60405180910390fd5b60006113fe611393565b9050600081511161141e5760405180602001604052806000815250611449565b806114288461163d565b6040516020016114399291906127bb565b6040516020818303038152906040525b915050919050565b505050565b505050565b611465838361179d565b61147260008484846114b6565b6114b1576040517f08c379a00000000000000000000000000000000000000000000000000000000081526004016114a890612e0d565b60405180910390fd5b505050565b60006114d78473ffffffffffffffffffffffffffffffffffffffff16611976565b15611630578373ffffffffffffffffffffffffffffffffffffffff1663150b7a02611500610d2d565b8786866040518563ffffffff1660e01b81526004016115229493929190612f14565b6020604051808303816000875af192505050801561155e57506040513d601f19601f8201168201806040525081019061155b9190612f75565b60015b6115e0573d806000811461158e576040519150601f19603f3d011682016040523d82523d6000602084013e611593565b606091505b5060008151036115d8576040517f08c379a00000000000000000000000000000000000000000000000000000000081526004016115cf90612e0d565b60405180910390fd5b805181602001fd5b63150b7a0260e01b7bffffffffffffffffffffffffffffffffffffffffffffffffffffffff1916817bffffffffffffffffffffffffffffffffffffffffffffffffffffffff191614915050611635565b600190505b949350505050565b606060008203611684576040518060400160405280600181526020017f30000000000000000000000000000000000000000000000000000000000000008152509050611798565b600082905060005b600082146116b657808061169f90612581565b915050600a826116af9190612fd1565b915061168c565b60008167ffffffffffffffff8111156116d2576116d1611ca6565b5b6040519080825280601f01601f1916602001820160405280156117045781602001600182028036833780820191505090505b5090505b600085146117915760018261171d9190612995565b9150600a8561172c9190613002565b603061173891906129c9565b60f81b81838151811061174e5761174d612523565b5b60200101907effffffffffffffffffffffffffffffffffffffffffffffffffffffffffffff1916908160001a905350600a8561178a9190612fd1565b9450611708565b8093505050505b919050565b600073ffffffffffffffffffffffffffffffffffffffff168273ffffffffffffffffffffffffffffffffffffffff160361180c576040517f08c379a00000000000000000000000000000000000000000000000000000000081526004016118039061307f565b60405180910390fd5b61181581610cc1565b15611855576040517f08c379a000000000000000000000000000000000000000000000000000000000815260040161184c906130eb565b60405180910390fd5b61186160008383611451565b6001600360008473ffffffffffffffffffffffffffffffffffffffff1673ffffffffffffffffffffffffffffffffffffffff16815260200190815260200160002060008282546118b191906129c9565b92505081905550816002600083815260200190815260200160002060006101000a81548173ffffffffffffffffffffffffffffffffffffffff021916908373ffffffffffffffffffffffffffffffffffffffff160217905550808273ffffffffffffffffffffffffffffffffffffffff16600073ffffffffffffffffffffffffffffffffffffffff167fddf252ad1be2c89b69c2b068fc378daa952ba7f163c4a11628f55a4df523b3ef60405160405180910390a461197260008383611456565b5050565b6000808273ffffffffffffffffffffffffffffffffffffffff163b119050919050565b6000604051905090565b600080fd5b600080fd5b60007fffffffff0000000000000000000000000000000000000000000000000000000082169050919050565b6119e2816119ad565b81146119ed57600080fd5b50565b6000813590506119ff816119d9565b92915050565b600060208284031215611a1b57611a1a6119a3565b5b6000611a29848285016119f0565b91505092915050565b60008115159050919050565b611a4781611a32565b82525050565b6000602082019050611a626000830184611a3e565b92915050565b600081519050919050565b600082825260208201905092915050565b60005b83811015611aa2578082015181840152602081019050611a87565b83811115611ab1576000848401525b50505050565b6000601f19601f8301169050919050565b6000611ad382611a68565b611add8185611a73565b9350611aed818560208601611a84565b611af681611ab7565b840191505092915050565b60006020820190508181036000830152611b1b8184611ac8565b905092915050565b6000819050919050565b611b3681611b23565b8114611b4157600080fd5b50565b600081359050611b5381611b2d565b92915050565b600060208284031215611b6f57611b6e6119a3565b5b6000611b7d84828501611b44565b91505092915050565b600073ffffffffffffffffffffffffffffffffffffffff82169050919050565b6000611bb182611b86565b9050919050565b611bc181611ba6565b82525050565b6000602082019050611bdc6000830184611bb8565b92915050565b611beb81611ba6565b8114611bf657600080fd5b50565b600081359050611c0881611be2565b92915050565b60008060408385031215611c2557611c246119a3565b5b6000611c3385828601611bf9565b9250506020611c4485828601611b44565b9150509250929050565b600080600060608486031215611c6757611c666119a3565b5b6000611c7586828701611bf9565b9350506020611c8686828701611bf9565b9250506040611c9786828701611b44565b9150509250925092565b600080fd5b7f4e487b7100000000000000000000000000000000000000000000000000000000600052604160045260246000fd5b611cde82611ab7565b810181811067ffffffffffffffff82111715611cfd57611cfc611ca6565b5b80604052505050565b6000611d10611999565b9050611d1c8282611cd5565b919050565b600067ffffffffffffffff821115611d3c57611d3b611ca6565b5b602082029050602081019050919050565b600080fd5b600080fd5b600067ffffffffffffffff821115611d7257611d71611ca6565b5b611d7b82611ab7565b9050602081019050919050565b82818337600083830152505050565b6000611daa611da584611d57565b611d06565b905082815260208101848484011115611dc657611dc5611d52565b5b611dd1848285611d88565b509392505050565b600082601f830112611dee57611ded611ca1565b5b8135611dfe848260208601611d97565b91505092915050565b6000611e1a611e1584611d21565b611d06565b90508083825260208201905060208402830185811115611e3d57611e3c611d4d565b5b835b81811015611e8457803567ffffffffffffffff811115611e6257611e61611ca1565b5b808601611e6f8982611dd9565b85526020850194505050602081019050611e3f565b5050509392505050565b600082601f830112611ea357611ea2611ca1565b5b8135611eb3848260208601611e07565b91505092915050565b60008060408385031215611ed357611ed26119a3565b5b6000611ee185828601611bf9565b925050602083013567ffffffffffffffff811115611f0257611f016119a8565b5b611f0e85828601611e8e565b9150509250929050565b600081519050919050565b600082825260208201905092915050565b6000819050602082019050919050565b611f4d81611b23565b82525050565b6000611f5f8383611f44565b60208301905092915050565b6000602082019050919050565b6000611f8382611f18565b611f8d8185611f23565b9350611f9883611f34565b8060005b83811015611fc9578151611fb08882611f53565b9750611fbb83611f6b565b925050600181019050611f9c565b5085935050505092915050565b60006020820190508181036000830152611ff08184611f78565b905092915050565b60006020828403121561200e5761200d6119a3565b5b600061201c84828501611bf9565b91505092915050565b61202e81611b23565b82525050565b60006020820190506120496000830184612025565b92915050565b61205881611a32565b811461206357600080fd5b50565b6000813590506120758161204f565b92915050565b60008060408385031215612092576120916119a3565b5b60006120a085828601611bf9565b92505060206120b185828601612066565b9150509250929050565b600080604083850312156120d2576120d16119a3565b5b60006120e085828601611bf9565b925050602083013567ffffffffffffffff811115612101576121006119a8565b5b61210d85828601611dd9565b9150509250929050565b600067ffffffffffffffff82111561213257612131611ca6565b5b61213b82611ab7565b9050602081019050919050565b600061215b61215684612117565b611d06565b90508281526020810184848401111561217757612176611d52565b5b612182848285611d88565b509392505050565b600082601f83011261219f5761219e611ca1565b5b81356121af848260208601612148565b91505092915050565b600080600080608085870312156121d2576121d16119a3565b5b60006121e087828801611bf9565b94505060206121f187828801611bf9565b935050604061220287828801611b44565b925050606085013567ffffffffffffffff811115612223576122226119a8565b5b61222f8782880161218a565b91505092959194509250565b60008060408385031215612252576122516119a3565b5b600061226085828601611bf9565b925050602061227185828601611bf9565b9150509250929050565b7f4e487b7100000000000000000000000000000000000000000000000000000000600052602260045260246000fd5b600060028204905060018216806122c257607f821691505b6020821081036122d5576122d461227b565b5b50919050565b7f4552433732313a20617070726f76656420717565727920666f72206e6f6e657860008201527f697374656e7420746f6b656e0000000000000000000000000000000000000000602082015250565b6000612337602c83611a73565b9150612342826122db565b604082019050919050565b600060208201905081810360008301526123668161232a565b9050919050565b7f4552433732313a20617070726f76616c20746f2063757272656e74206f776e6560008201527f7200000000000000000000000000000000000000000000000000000000000000602082015250565b60006123c9602183611a73565b91506123d48261236d565b604082019050919050565b600060208201905081810360008301526123f8816123bc565b9050919050565b7f4552433732313a20617070726f76652063616c6c6572206973206e6f74206f7760008201527f6e6572206e6f7220617070726f76656420666f7220616c6c0000000000000000602082015250565b600061245b603883611a73565b9150612466826123ff565b604082019050919050565b6000602082019050818103600083015261248a8161244e565b9050919050565b7f4552433732313a207472616e736665722063616c6c6572206973206e6f74206f60008201527f776e6572206e6f7220617070726f766564000000000000000000000000000000602082015250565b60006124ed603183611a73565b91506124f882612491565b604082019050919050565b6000602082019050818103600083015261251c816124e0565b9050919050565b7f4e487b7100000000000000000000000000000000000000000000000000000000600052603260045260246000fd5b7f4e487b7100000000000000000000000000000000000000000000000000000000600052601160045260246000fd5b600061258c82611b23565b91507fffffffffffffffffffffffffffffffffffffffffffffffffffffffffffffffff82036125be576125bd612552565b5b600182019050919050565b7f4552433732313a206f776e657220717565727920666f72206e6f6e657869737460008201527f656e7420746f6b656e0000000000000000000000000000000000000000000000602082015250565b6000612625602983611a73565b9150612630826125c9565b604082019050919050565b6000602082019050818103600083015261265481612618565b9050919050565b7f4552433732313a2062616c616e636520717565727920666f7220746865207a6560008201527f726f206164647265737300000000000000000000000000000000000000000000602082015250565b60006126b7602a83611a73565b91506126c28261265b565b604082019050919050565b600060208201905081810360008301526126e6816126aa565b9050919050565b7f45524337323155524953746f726167653a2055524920717565727920666f722060008201527f6e6f6e6578697374656e7420746f6b656e000000000000000000000000000000602082015250565b6000612749603183611a73565b9150612754826126ed565b604082019050919050565b600060208201905081810360008301526127788161273c565b9050919050565b600081905092915050565b600061279582611a68565b61279f818561277f565b93506127af818560208601611a84565b80840191505092915050565b60006127c7828561278a565b91506127d3828461278a565b91508190509392505050565b7f4552433732313a206f70657261746f7220717565727920666f72206e6f6e657860008201527f697374656e7420746f6b656e0000000000000000000000000000000000000000602082015250565b600061283b602c83611a73565b9150612846826127df565b604082019050919050565b6000602082019050818103600083015261286a8161282e565b9050919050565b7f4552433732313a207472616e736665722066726f6d20696e636f72726563742060008201527f6f776e6572000000000000000000000000000000000000000000000000000000602082015250565b60006128cd602583611a73565b91506128d882612871565b604082019050919050565b600060208201905081810360008301526128fc816128c0565b9050919050565b7f4552433732313a207472616e7366657220746f20746865207a65726f2061646460008201527f7265737300000000000000000000000000000000000000000000000000000000602082015250565b600061295f602483611a73565b915061296a82612903565b604082019050919050565b6000602082019050818103600083015261298e81612952565b9050919050565b60006129a082611b23565b91506129ab83611b23565b9250828210156129be576129bd612552565b5b828203905092915050565b60006129d482611b23565b91506129df83611b23565b9250827fffffffffffffffffffffffffffffffffffffffffffffffffffffffffffffffff03821115612a1457612a13612552565b5b828201905092915050565b7f45524337323155524953746f726167653a2055524920736574206f66206e6f6e60008201527f6578697374656e7420746f6b656e000000000000000000000000000000000000602082015250565b6000612a7b602e83611a73565b9150612a8682612a1f565b604082019050919050565b60006020820190508181036000830152612aaa81612a6e565b9050919050565b60008190508160005260206000209050919050565b60006020601f8301049050919050565b600082821b905092915050565b600060088302612b137fffffffffffffffffffffffffffffffffffffffffffffffffffffffffffffffff82612ad6565b612b1d8683612ad6565b95508019841693508086168417925050509392505050565b6000819050919050565b6000612b5a612b55612b5084611b23565b612b35565b611b23565b9050919050565b6000819050919050565b612b7483612b3f565b612b88612b8082612b61565b848454612ae3565b825550505050565b600090565b612b9d612b90565b612ba8818484612b6b565b505050565b5b81811015612bcc57612bc1600082612b95565b600181019050612bae565b5050565b601f821115612c1157612be281612ab1565b612beb84612ac6565b81016020851015612bfa578190505b612c0e612c0685612ac6565b830182612bad565b50505b505050565b600082821c905092915050565b6000612c3460001984600802612c16565b1980831691505092915050565b6000612c4d8383612c23565b9150826002028217905092915050565b612c6682611a68565b67ffffffffffffffff811115612c7f57612c7e611ca6565b5b612c8982546122aa565b612c94828285612bd0565b600060209050601f831160018114612cc75760008415612cb5578287015190505b612cbf8582612c41565b865550612d27565b601f198416612cd586612ab1565b60005b82811015612cfd57848901518255600182019150602085019450602081019050612cd8565b86831015612d1a5784890151612d16601f891682612c23565b8355505b6001600288020188555050505b505050505050565b7f4552433732313a20617070726f766520746f2063616c6c657200000000000000600082015250565b6000612d65601983611a73565b9150612d7082612d2f565b602082019050919050565b60006020820190508181036000830152612d9481612d58565b9050919050565b7f4552433732313a207472616e7366657220746f206e6f6e20455243373231526560008201527f63656976657220696d706c656d656e7465720000000000000000000000000000602082015250565b6000612df7603283611a73565b9150612e0282612d9b565b604082019050919050565b60006020820190508181036000830152612e2681612dea565b9050919050565b7f4552433732314d657461646174613a2055524920717565727920666f72206e6f60008201527f6e6578697374656e7420746f6b656e0000000000000000000000000000000000602082015250565b6000612e89602f83611a73565b9150612e9482612e2d565b604082019050919050565b60006020820190508181036000830152612eb881612e7c565b9050919050565b600081519050919050565b600082825260208201905092915050565b6000612ee682612ebf565b612ef08185612eca565b9350612f00818560208601611a84565b612f0981611ab7565b840191505092915050565b6000608082019050612f296000830187611bb8565b612f366020830186611bb8565b612f436040830185612025565b8181036060830152612f558184612edb565b905095945050505050565b600081519050612f6f816119d9565b92915050565b600060208284031215612f8b57612f8a6119a3565b5b6000612f9984828501612f60565b91505092915050565b7f4e487b7100000000000000000000000000000000000000000000000000000000600052601260045260246000fd5b6000612fdc82611b23565b9150612fe783611b23565b925082612ff757612ff6612fa2565b5b828204905092915050565b600061300d82611b23565b915061301883611b23565b92508261302857613027612fa2565b5b828206905092915050565b7f4552433732313a206d696e7420746f20746865207a65726f2061646472657373600082015250565b6000613069602083611a73565b915061307482613033565b602082019050919050565b600060208201905081810360008301526130988161305c565b9050919050565b7f4552433732313a20746f6b656e20616c7265616479206d696e74656400000000600082015250565b60006130d5601c83611a73565b91506130e08261309f565b602082019050919050565b60006020820190508181036000830152613104816130c8565b905091905056fea26469706673582212207eb72f51f4b2e3d908d5c14d6bdf219bb89c3effdc1bfde3aa5036390f66cc4464736f6c634300080f0033",
  "immutableReferences": {},
  "source": "// SPDX-License-Identifier: MIT\npragma solidity ^0.8.0;\n\nimport \"@openzeppelin/contracts/token/ERC721/extensions/ERC721URIStorage.sol\";\nimport \"@openzeppelin/contracts/utils/Counters.sol\";\n\ncontract vokaNFT is ERC721URIStorage {\n    using Counters for Counters.Counter;\n    Counters.Counter private _tokenIds;\n\n    constructor() ERC721(\"vokaNFT\", \"VK\") {\n        _tokenIds.increment();\n    }\n\n    function createNFT(address to, string memory tokenURI)\n        public\n        returns (uint256)\n    {\n        uint256 newNFTID = _tokenIds.current();\n        _safeMint(to, newNFTID);\n        _setTokenURI(newNFTID, tokenURI);\n\n        _tokenIds.increment();\n        return newNFTID;\n    }\n\n    function createNFTArr(address to, string[] memory tokenURIArr)\n        public\n        returns (uint256[] memory)\n    {\n        uint256[] memory newNFTIDArr = new uint256[](tokenURIArr.length);\n\tfor(uint i = 0;i < tokenURIArr.length;i++) {\n\t\tuint256 newNFTID = _tokenIds.current();\n        \t_safeMint(to, newNFTID);\n        \t_setTokenURI(newNFTID, tokenURIArr[i]);\n\t\t_tokenIds.increment();\n\t\tnewNFTIDArr[i] = newNFTID;\n\t}\n        return newNFTIDArr;\n    }\n}\n",
  "sourcePath": "/home/ubuntu/tianxu/block_chain/vokaNFT/contracts/vokaNFT.sol",
  "compiler": {
    "name": "solc",
    "version": "0.8.15+commit.e14f2714.Emscripten.clang"
  },
  "schemaVersion": "3.4.7",
  "updatedAt": "2022-07-01T00:20:40.978Z",
  "networkType": "ethereum",
  "devdoc": {
    "kind": "dev",
    "methods": {
      "approve(address,uint256)": {
        "details": "See {IERC721-approve}."
      },
      "balanceOf(address)": {
        "details": "See {IERC721-balanceOf}."
      },
      "getApproved(uint256)": {
        "details": "See {IERC721-getApproved}."
      },
      "isApprovedForAll(address,address)": {
        "details": "See {IERC721-isApprovedForAll}."
      },
      "name()": {
        "details": "See {IERC721Metadata-name}."
      },
      "ownerOf(uint256)": {
        "details": "See {IERC721-ownerOf}."
      },
      "safeTransferFrom(address,address,uint256)": {
        "details": "See {IERC721-safeTransferFrom}."
      },
      "safeTransferFrom(address,address,uint256,bytes)": {
        "details": "See {IERC721-safeTransferFrom}."
      },
      "setApprovalForAll(address,bool)": {
        "details": "See {IERC721-setApprovalForAll}."
      },
      "supportsInterface(bytes4)": {
        "details": "See {IERC165-supportsInterface}."
      },
      "symbol()": {
        "details": "See {IERC721Metadata-symbol}."
      },
      "tokenURI(uint256)": {
        "details": "See {IERC721Metadata-tokenURI}."
      },
      "transferFrom(address,address,uint256)": {
        "details": "See {IERC721-transferFrom}."
      }
    },
    "version": 1
  },
  "userdoc": {
    "kind": "user",
    "methods": {},
    "version": 1
  }
}