{
  "contractName": "vokaNFT",
  "abi": [
    {
      "inputs": [],
      "stateMutability": "nonpayable",
      "type": "constructor"
    },
    {
      "anonymous": false,
      "inputs": [
        {
          "indexed": true,
          "internalType": "address",
          "name": "owner",
          "type": "address"
        },
        {
          "indexed": true,
          "internalType": "address",
          "name": "approved",
          "type": "address"
        },
        {
          "indexed": true,
          "internalType": "uint256",
          "name": "tokenId",
          "type": "uint256"
        }
      ],
      "name": "Approval",
      "type": "event"
    },
    {
      "anonymous": false,
      "inputs": [
        {
          "indexed": true,
          "internalType": "address",
          "name": "owner",
          "type": "address"
        },
        {
          "indexed": true,
          "internalType": "address",
          "name": "operator",
          "type": "address"
        },
        {
          "indexed": false,
          "internalType": "bool",
          "name": "approved",
          "type": "bool"
        }
      ],
      "name": "ApprovalForAll",
      "type": "event"
    },
    {
      "anonymous": false,
      "inputs": [
        {
          "indexed": true,
          "internalType": "address",
          "name": "from",
          "type": "address"
        },
        {
          "indexed": true,
          "internalType": "address",
          "name": "to",
          "type": "address"
        },
        {
          "indexed": true,
          "internalType": "uint256",
          "name": "tokenId",
          "type": "uint256"
        }
      ],
      "name": "Transfer",
      "type": "event"
    },
    {
      "inputs": [
        {
          "internalType": "address",
          "name": "to",
          "type": "address"
        },
        {
          "internalType": "uint256",
          "name": "tokenId",
          "type": "uint256"
        }
      ],
      "name": "approve",
      "outputs": [],
      "stateMutability": "nonpayable",
      "type": "function"
    },
    {
      "inputs": [
        {
          "internalType": "address",
          "name": "owner",
          "type": "address"
        }
      ],
      "name": "balanceOf",
      "outputs": [
        {
          "internalType": "uint256",
          "name": "",
          "type": "uint256"
        }
      ],
      "stateMutability": "view",
      "type": "function",
      "constant": true
    },
    {
      "inputs": [
        {
          "internalType": "uint256",
          "name": "tokenId",
          "type": "uint256"
        }
      ],
      "name": "getApproved",
      "outputs": [
        {
          "internalType": "address",
          "name": "",
          "type": "address"
        }
      ],
      "stateMutability": "view",
      "type": "function",
      "constant": true
    },
    {
      "inputs": [
        {
          "internalType": "address",
          "name": "owner",
          "type": "address"
        },
        {
          "internalType": "address",
          "name": "operator",
          "type": "address"
        }
      ],
      "name": "isApprovedForAll",
      "outputs": [
        {
          "internalType": "bool",
          "name": "",
          "type": "bool"
        }
      ],
      "stateMutability": "view",
      "type": "function",
      "constant": true
    },
    {
      "inputs": [],
      "name": "name",
      "outputs": [
        {
          "internalType": "string",
          "name": "",
          "type": "string"
        }
      ],
      "stateMutability": "view",
      "type": "function",
      "constant": true
    },
    {
      "inputs": [
        {
          "internalType": "uint256",
          "name": "tokenId",
          "type": "uint256"
        }
      ],
      "name": "ownerOf",
      "outputs": [
        {
          "internalType": "address",
          "name": "",
          "type": "address"
        }
      ],
      "stateMutability": "view",
      "type": "function",
      "constant": true
    },
    {
      "inputs": [
        {
          "internalType": "address",
          "name": "from",
          "type": "address"
        },
        {
          "internalType": "address",
          "name": "to",
          "type": "address"
        },
        {
          "internalType": "uint256",
          "name": "tokenId",
          "type": "uint256"
        }
      ],
      "name": "safeTransferFrom",
      "outputs": [],
      "stateMutability": "nonpayable",
      "type": "function"
    },
    {
      "inputs": [
        {
          "internalType": "address",
          "name": "from",
          "type": "address"
        },
        {
          "internalType": "address",
          "name": "to",
          "type": "address"
        },
        {
          "internalType": "uint256",
          "name": "tokenId",
          "type": "uint256"
        },
        {
          "internalType": "bytes",
          "name": "_data",
          "type": "bytes"
        }
      ],
      "name": "safeTransferFrom",
      "outputs": [],
      "stateMutability": "nonpayable",
      "type": "function"
    },
    {
      "inputs": [
        {
          "internalType": "address",
          "name": "operator",
          "type": "address"
        },
        {
          "internalType": "bool",
          "name": "approved",
          "type": "bool"
        }
      ],
      "name": "setApprovalForAll",
      "outputs": [],
      "stateMutability": "nonpayable",
      "type": "function"
    },
    {
      "inputs": [
        {
          "internalType": "bytes4",
          "name": "interfaceId",
          "type": "bytes4"
        }
      ],
      "name": "supportsInterface",
      "outputs": [
        {
          "internalType": "bool",
          "name": "",
          "type": "bool"
        }
      ],
      "stateMutability": "view",
      "type": "function",
      "constant": true
    },
    {
      "inputs": [],
      "name": "symbol",
      "outputs": [
        {
          "internalType": "string",
          "name": "",
          "type": "string"
        }
      ],
      "stateMutability": "view",
      "type": "function",
      "constant": true
    },
    {
      "inputs": [
        {
          "internalType": "uint256",
          "name": "tokenId",
          "type": "uint256"
        }
      ],
      "name": "tokenURI",
      "outputs": [
        {
          "internalType": "string",
          "name": "",
          "type": "string"
        }
      ],
      "stateMutability": "view",
      "type": "function",
      "constant": true
    },
    {
      "inputs": [
        {
          "internalType": "address",
          "name": "from",
          "type": "address"
        },
        {
          "internalType": "address",
          "name": "to",
          "type": "address"
        },
        {
          "internalType": "uint256",
          "name": "tokenId",
          "type": "uint256"
        }
      ],
      "name": "transferFrom",
      "outputs": [],
      "stateMutability": "nonpayable",
      "type": "function"
    },
    {
      "inputs": [
        {
          "internalType": "address",
          "name": "to",
          "type": "address"
        },
        {
          "internalType": "string",
          "name": "tokenURI",
          "type": "string"
        }
      ],
      "name": "createNFT",
      "outputs": [
        {
          "internalType": "uint256",
          "name": "",
          "type": "uint256"
        }
      ],
      "stateMutability": "nonpayable",
      "type": "function"
    }
  ],
  "bytecode": "0x60806040523480156200001157600080fd5b506040518060400160405280600781526020017f766f6b614e4654000000000000000000000000000000000000000000000000008152506040518060400160405280600281526020017f564b000000000000000000000000000000000000000000000000000000000000815250816000908051906020019062000096929190620000e5565b508060019080519060200190620000af929190620000e5565b505050620000c96007620000cf60201b62000b251760201c565b620001f9565b6001816000016000828254019250508190555050565b828054620000f390620001c4565b90600052602060002090601f01602090048101928262000117576000855562000163565b82601f106200013257805160ff191683800117855562000163565b8280016001018555821562000163579182015b828111156200016257825182559160200191906001019062000145565b5b50905062000172919062000176565b5090565b5b808211156200019157600081600090555060010162000177565b5090565b7f4e487b7100000000000000000000000000000000000000000000000000000000600052602260045260246000fd5b60006002820490506001821680620001dd57607f821691505b602082108103620001f357620001f262000195565b5b50919050565b612c2f80620002096000396000f3fe608060405234801561001057600080fd5b50600436106100ea5760003560e01c806370a082311161008c578063a561403311610066578063a56140331461025b578063b88d4fde1461028b578063c87b56dd146102a7578063e985e9c5146102d7576100ea565b806370a08231146101f157806395d89b4114610221578063a22cb4651461023f576100ea565b8063095ea7b3116100c8578063095ea7b31461016d57806323b872dd1461018957806342842e0e146101a55780636352211e146101c1576100ea565b806301ffc9a7146100ef57806306fdde031461011f578063081812fc1461013d575b600080fd5b61010960048036038101906101049190611993565b610307565b60405161011691906119db565b60405180910390f35b6101276103e9565b6040516101349190611a8f565b60405180910390f35b61015760048036038101906101529190611ae7565b61047b565b6040516101649190611b55565b60405180910390f35b61018760048036038101906101829190611b9c565b610500565b005b6101a3600480360381019061019e9190611bdc565b610617565b005b6101bf60048036038101906101ba9190611bdc565b610677565b005b6101db60048036038101906101d69190611ae7565b610697565b6040516101e89190611b55565b60405180910390f35b61020b60048036038101906102069190611c2f565b610748565b6040516102189190611c6b565b60405180910390f35b6102296107ff565b6040516102369190611a8f565b60405180910390f35b61025960048036038101906102549190611cb2565b610891565b005b61027560048036038101906102709190611e27565b6108a7565b6040516102829190611c6b565b60405180910390f35b6102a560048036038101906102a09190611f24565b6108de565b005b6102c160048036038101906102bc9190611ae7565b610940565b6040516102ce9190611a8f565b60405180910390f35b6102f160048036038101906102ec9190611fa7565b610a91565b6040516102fe91906119db565b60405180910390f35b60007f80ac58cd000000000000000000000000000000000000000000000000000000007bffffffffffffffffffffffffffffffffffffffffffffffffffffffff1916827bffffffffffffffffffffffffffffffffffffffffffffffffffffffff191614806103d257507f5b5e139f000000000000000000000000000000000000000000000000000000007bffffffffffffffffffffffffffffffffffffffffffffffffffffffff1916827bffffffffffffffffffffffffffffffffffffffffffffffffffffffff1916145b806103e257506103e182610b3b565b5b9050919050565b6060600080546103f890612016565b80601f016020809104026020016040519081016040528092919081815260200182805461042490612016565b80156104715780601f1061044657610100808354040283529160200191610471565b820191906000526020600020905b81548152906001019060200180831161045457829003601f168201915b5050505050905090565b600061048682610ba5565b6104c5576040517f08c379a00000000000000000000000000000000000000000000000000000000081526004016104bc906120b9565b60405180910390fd5b6004600083815260200190815260200160002060009054906101000a900473ffffffffffffffffffffffffffffffffffffffff169050919050565b600061050b82610697565b90508073ffffffffffffffffffffffffffffffffffffffff168373ffffffffffffffffffffffffffffffffffffffff160361057b576040517f08c379a00000000000000000000000000000000000000000000000000000000081526004016105729061214b565b60405180910390fd5b8073ffffffffffffffffffffffffffffffffffffffff1661059a610c11565b73ffffffffffffffffffffffffffffffffffffffff1614806105c957506105c8816105c3610c11565b610a91565b5b610608576040517f08c379a00000000000000000000000000000000000000000000000000000000081526004016105ff906121dd565b60405180910390fd5b6106128383610c19565b505050565b610628610622610c11565b82610cd2565b610667576040517f08c379a000000000000000000000000000000000000000000000000000000000815260040161065e9061226f565b60405180910390fd5b610672838383610db0565b505050565b610692838383604051806020016040528060008152506108de565b505050565b6000806002600084815260200190815260200160002060009054906101000a900473ffffffffffffffffffffffffffffffffffffffff169050600073ffffffffffffffffffffffffffffffffffffffff168173ffffffffffffffffffffffffffffffffffffffff160361073f576040517f08c379a000000000000000000000000000000000000000000000000000000000815260040161073690612301565b60405180910390fd5b80915050919050565b60008073ffffffffffffffffffffffffffffffffffffffff168273ffffffffffffffffffffffffffffffffffffffff16036107b8576040517f08c379a00000000000000000000000000000000000000000000000000000000081526004016107af90612393565b60405180910390fd5b600360008373ffffffffffffffffffffffffffffffffffffffff1673ffffffffffffffffffffffffffffffffffffffff168152602001908152602001600020549050919050565b60606001805461080e90612016565b80601f016020809104026020016040519081016040528092919081815260200182805461083a90612016565b80156108875780601f1061085c57610100808354040283529160200191610887565b820191906000526020600020905b81548152906001019060200180831161086a57829003601f168201915b5050505050905090565b6108a361089c610c11565b8383611016565b5050565b6000806108b46007611182565b90506108c08482611190565b6108ca81846111ae565b6108d46007610b25565b8091505092915050565b6108ef6108e9610c11565b83610cd2565b61092e576040517f08c379a00000000000000000000000000000000000000000000000000000000081526004016109259061226f565b60405180910390fd5b61093a84848484611222565b50505050565b606061094b82610ba5565b61098a576040517f08c379a000000000000000000000000000000000000000000000000000000000815260040161098190612425565b60405180910390fd5b60006006600084815260200190815260200160002080546109aa90612016565b80601f01602080910402602001604051908101604052809291908181526020018280546109d690612016565b8015610a235780601f106109f857610100808354040283529160200191610a23565b820191906000526020600020905b815481529060010190602001808311610a0657829003601f168201915b505050505090506000610a3461127e565b90506000815103610a49578192505050610a8c565b600082511115610a7e578082604051602001610a66929190612481565b60405160208183030381529060405292505050610a8c565b610a8784611295565b925050505b919050565b6000600560008473ffffffffffffffffffffffffffffffffffffffff1673ffffffffffffffffffffffffffffffffffffffff16815260200190815260200160002060008373ffffffffffffffffffffffffffffffffffffffff1673ffffffffffffffffffffffffffffffffffffffff16815260200190815260200160002060009054906101000a900460ff16905092915050565b6001816000016000828254019250508190555050565b60007f01ffc9a7000000000000000000000000000000000000000000000000000000007bffffffffffffffffffffffffffffffffffffffffffffffffffffffff1916827bffffffffffffffffffffffffffffffffffffffffffffffffffffffff1916149050919050565b60008073ffffffffffffffffffffffffffffffffffffffff166002600084815260200190815260200160002060009054906101000a900473ffffffffffffffffffffffffffffffffffffffff1673ffffffffffffffffffffffffffffffffffffffff1614159050919050565b600033905090565b816004600083815260200190815260200160002060006101000a81548173ffffffffffffffffffffffffffffffffffffffff021916908373ffffffffffffffffffffffffffffffffffffffff160217905550808273ffffffffffffffffffffffffffffffffffffffff16610c8c83610697565b73ffffffffffffffffffffffffffffffffffffffff167f8c5be1e5ebec7d5bd14f71427d1e84f3dd0314c0f7b2291e5b200ac8c7c3b92560405160405180910390a45050565b6000610cdd82610ba5565b610d1c576040517f08c379a0000000000000000000000000000000000000000000000000000000008152600401610d1390612517565b60405180910390fd5b6000610d2783610697565b90508073ffffffffffffffffffffffffffffffffffffffff168473ffffffffffffffffffffffffffffffffffffffff161480610d695750610d688185610a91565b5b80610da757508373ffffffffffffffffffffffffffffffffffffffff16610d8f8461047b565b73ffffffffffffffffffffffffffffffffffffffff16145b91505092915050565b8273ffffffffffffffffffffffffffffffffffffffff16610dd082610697565b73ffffffffffffffffffffffffffffffffffffffff1614610e26576040517f08c379a0000000000000000000000000000000000000000000000000000000008152600401610e1d906125a9565b60405180910390fd5b600073ffffffffffffffffffffffffffffffffffffffff168273ffffffffffffffffffffffffffffffffffffffff1603610e95576040517f08c379a0000000000000000000000000000000000000000000000000000000008152600401610e8c9061263b565b60405180910390fd5b610ea083838361133c565b610eab600082610c19565b6001600360008573ffffffffffffffffffffffffffffffffffffffff1673ffffffffffffffffffffffffffffffffffffffff1681526020019081526020016000206000828254610efb919061268a565b925050819055506001600360008473ffffffffffffffffffffffffffffffffffffffff1673ffffffffffffffffffffffffffffffffffffffff1681526020019081526020016000206000828254610f5291906126be565b92505081905550816002600083815260200190815260200160002060006101000a81548173ffffffffffffffffffffffffffffffffffffffff021916908373ffffffffffffffffffffffffffffffffffffffff160217905550808273ffffffffffffffffffffffffffffffffffffffff168473ffffffffffffffffffffffffffffffffffffffff167fddf252ad1be2c89b69c2b068fc378daa952ba7f163c4a11628f55a4df523b3ef60405160405180910390a4611011838383611341565b505050565b8173ffffffffffffffffffffffffffffffffffffffff168373ffffffffffffffffffffffffffffffffffffffff1603611084576040517f08c379a000000000000000000000000000000000000000000000000000000000815260040161107b90612760565b60405180910390fd5b80600560008573ffffffffffffffffffffffffffffffffffffffff1673ffffffffffffffffffffffffffffffffffffffff16815260200190815260200160002060008473ffffffffffffffffffffffffffffffffffffffff1673ffffffffffffffffffffffffffffffffffffffff16815260200190815260200160002060006101000a81548160ff0219169083151502179055508173ffffffffffffffffffffffffffffffffffffffff168373ffffffffffffffffffffffffffffffffffffffff167f17307eab39ab6107e8899845ad3d59bd9653f200f220920489ca2b5937696c318360405161117591906119db565b60405180910390a3505050565b600081600001549050919050565b6111aa828260405180602001604052806000815250611346565b5050565b6111b782610ba5565b6111f6576040517f08c379a00000000000000000000000000000000000000000000000000000000081526004016111ed906127f2565b60405180910390fd5b8060066000848152602001908152602001600020908051906020019061121d929190611884565b505050565b61122d848484610db0565b611239848484846113a1565b611278576040517f08c379a000000000000000000000000000000000000000000000000000000000815260040161126f90612884565b60405180910390fd5b50505050565b606060405180602001604052806000815250905090565b60606112a082610ba5565b6112df576040517f08c379a00000000000000000000000000000000000000000000000000000000081526004016112d690612916565b60405180910390fd5b60006112e961127e565b905060008151116113095760405180602001604052806000815250611334565b8061131384611528565b604051602001611324929190612481565b6040516020818303038152906040525b915050919050565b505050565b505050565b6113508383611688565b61135d60008484846113a1565b61139c576040517f08c379a000000000000000000000000000000000000000000000000000000000815260040161139390612884565b60405180910390fd5b505050565b60006113c28473ffffffffffffffffffffffffffffffffffffffff16611861565b1561151b578373ffffffffffffffffffffffffffffffffffffffff1663150b7a026113eb610c11565b8786866040518563ffffffff1660e01b815260040161140d949392919061298b565b6020604051808303816000875af192505050801561144957506040513d601f19601f8201168201806040525081019061144691906129ec565b60015b6114cb573d8060008114611479576040519150601f19603f3d011682016040523d82523d6000602084013e61147e565b606091505b5060008151036114c3576040517f08c379a00000000000000000000000000000000000000000000000000000000081526004016114ba90612884565b60405180910390fd5b805181602001fd5b63150b7a0260e01b7bffffffffffffffffffffffffffffffffffffffffffffffffffffffff1916817bffffffffffffffffffffffffffffffffffffffffffffffffffffffff191614915050611520565b600190505b949350505050565b60606000820361156f576040518060400160405280600181526020017f30000000000000000000000000000000000000000000000000000000000000008152509050611683565b600082905060005b600082146115a157808061158a90612a19565b915050600a8261159a9190612a90565b9150611577565b60008167ffffffffffffffff8111156115bd576115bc611cfc565b5b6040519080825280601f01601f1916602001820160405280156115ef5781602001600182028036833780820191505090505b5090505b6000851461167c57600182611608919061268a565b9150600a856116179190612ac1565b603061162391906126be565b60f81b81838151811061163957611638612af2565b5b60200101907effffffffffffffffffffffffffffffffffffffffffffffffffffffffffffff1916908160001a905350600a856116759190612a90565b94506115f3565b8093505050505b919050565b600073ffffffffffffffffffffffffffffffffffffffff168273ffffffffffffffffffffffffffffffffffffffff16036116f7576040517f08c379a00000000000000000000000000000000000000000000000000000000081526004016116ee90612b6d565b60405180910390fd5b61170081610ba5565b15611740576040517f08c379a000000000000000000000000000000000000000000000000000000000815260040161173790612bd9565b60405180910390fd5b61174c6000838361133c565b6001600360008473ffffffffffffffffffffffffffffffffffffffff1673ffffffffffffffffffffffffffffffffffffffff168152602001908152602001600020600082825461179c91906126be565b92505081905550816002600083815260200190815260200160002060006101000a81548173ffffffffffffffffffffffffffffffffffffffff021916908373ffffffffffffffffffffffffffffffffffffffff160217905550808273ffffffffffffffffffffffffffffffffffffffff16600073ffffffffffffffffffffffffffffffffffffffff167fddf252ad1be2c89b69c2b068fc378daa952ba7f163c4a11628f55a4df523b3ef60405160405180910390a461185d60008383611341565b5050565b6000808273ffffffffffffffffffffffffffffffffffffffff163b119050919050565b82805461189090612016565b90600052602060002090601f0160209004810192826118b257600085556118f9565b82601f106118cb57805160ff19168380011785556118f9565b828001600101855582156118f9579182015b828111156118f85782518255916020019190600101906118dd565b5b509050611906919061190a565b5090565b5b8082111561192357600081600090555060010161190b565b5090565b6000604051905090565b600080fd5b600080fd5b60007fffffffff0000000000000000000000000000000000000000000000000000000082169050919050565b6119708161193b565b811461197b57600080fd5b50565b60008135905061198d81611967565b92915050565b6000602082840312156119a9576119a8611931565b5b60006119b78482850161197e565b91505092915050565b60008115159050919050565b6119d5816119c0565b82525050565b60006020820190506119f060008301846119cc565b92915050565b600081519050919050565b600082825260208201905092915050565b60005b83811015611a30578082015181840152602081019050611a15565b83811115611a3f576000848401525b50505050565b6000601f19601f8301169050919050565b6000611a61826119f6565b611a6b8185611a01565b9350611a7b818560208601611a12565b611a8481611a45565b840191505092915050565b60006020820190508181036000830152611aa98184611a56565b905092915050565b6000819050919050565b611ac481611ab1565b8114611acf57600080fd5b50565b600081359050611ae181611abb565b92915050565b600060208284031215611afd57611afc611931565b5b6000611b0b84828501611ad2565b91505092915050565b600073ffffffffffffffffffffffffffffffffffffffff82169050919050565b6000611b3f82611b14565b9050919050565b611b4f81611b34565b82525050565b6000602082019050611b6a6000830184611b46565b92915050565b611b7981611b34565b8114611b8457600080fd5b50565b600081359050611b9681611b70565b92915050565b60008060408385031215611bb357611bb2611931565b5b6000611bc185828601611b87565b9250506020611bd285828601611ad2565b9150509250929050565b600080600060608486031215611bf557611bf4611931565b5b6000611c0386828701611b87565b9350506020611c1486828701611b87565b9250506040611c2586828701611ad2565b9150509250925092565b600060208284031215611c4557611c44611931565b5b6000611c5384828501611b87565b91505092915050565b611c6581611ab1565b82525050565b6000602082019050611c806000830184611c5c565b92915050565b611c8f816119c0565b8114611c9a57600080fd5b50565b600081359050611cac81611c86565b92915050565b60008060408385031215611cc957611cc8611931565b5b6000611cd785828601611b87565b9250506020611ce885828601611c9d565b9150509250929050565b600080fd5b600080fd5b7f4e487b7100000000000000000000000000000000000000000000000000000000600052604160045260246000fd5b611d3482611a45565b810181811067ffffffffffffffff82111715611d5357611d52611cfc565b5b80604052505050565b6000611d66611927565b9050611d728282611d2b565b919050565b600067ffffffffffffffff821115611d9257611d91611cfc565b5b611d9b82611a45565b9050602081019050919050565b82818337600083830152505050565b6000611dca611dc584611d77565b611d5c565b905082815260208101848484011115611de657611de5611cf7565b5b611df1848285611da8565b509392505050565b600082601f830112611e0e57611e0d611cf2565b5b8135611e1e848260208601611db7565b91505092915050565b60008060408385031215611e3e57611e3d611931565b5b6000611e4c85828601611b87565b925050602083013567ffffffffffffffff811115611e6d57611e6c611936565b5b611e7985828601611df9565b9150509250929050565b600067ffffffffffffffff821115611e9e57611e9d611cfc565b5b611ea782611a45565b9050602081019050919050565b6000611ec7611ec284611e83565b611d5c565b905082815260208101848484011115611ee357611ee2611cf7565b5b611eee848285611da8565b509392505050565b600082601f830112611f0b57611f0a611cf2565b5b8135611f1b848260208601611eb4565b91505092915050565b60008060008060808587031215611f3e57611f3d611931565b5b6000611f4c87828801611b87565b9450506020611f5d87828801611b87565b9350506040611f6e87828801611ad2565b925050606085013567ffffffffffffffff811115611f8f57611f8e611936565b5b611f9b87828801611ef6565b91505092959194509250565b60008060408385031215611fbe57611fbd611931565b5b6000611fcc85828601611b87565b9250506020611fdd85828601611b87565b9150509250929050565b7f4e487b7100000000000000000000000000000000000000000000000000000000600052602260045260246000fd5b6000600282049050600182168061202e57607f821691505b60208210810361204157612040611fe7565b5b50919050565b7f4552433732313a20617070726f76656420717565727920666f72206e6f6e657860008201527f697374656e7420746f6b656e0000000000000000000000000000000000000000602082015250565b60006120a3602c83611a01565b91506120ae82612047565b604082019050919050565b600060208201905081810360008301526120d281612096565b9050919050565b7f4552433732313a20617070726f76616c20746f2063757272656e74206f776e6560008201527f7200000000000000000000000000000000000000000000000000000000000000602082015250565b6000612135602183611a01565b9150612140826120d9565b604082019050919050565b6000602082019050818103600083015261216481612128565b9050919050565b7f4552433732313a20617070726f76652063616c6c6572206973206e6f74206f7760008201527f6e6572206e6f7220617070726f76656420666f7220616c6c0000000000000000602082015250565b60006121c7603883611a01565b91506121d28261216b565b604082019050919050565b600060208201905081810360008301526121f6816121ba565b9050919050565b7f4552433732313a207472616e736665722063616c6c6572206973206e6f74206f60008201527f776e6572206e6f7220617070726f766564000000000000000000000000000000602082015250565b6000612259603183611a01565b9150612264826121fd565b604082019050919050565b600060208201905081810360008301526122888161224c565b9050919050565b7f4552433732313a206f776e657220717565727920666f72206e6f6e657869737460008201527f656e7420746f6b656e0000000000000000000000000000000000000000000000602082015250565b60006122eb602983611a01565b91506122f68261228f565b604082019050919050565b6000602082019050818103600083015261231a816122de565b9050919050565b7f4552433732313a2062616c616e636520717565727920666f7220746865207a6560008201527f726f206164647265737300000000000000000000000000000000000000000000602082015250565b600061237d602a83611a01565b915061238882612321565b604082019050919050565b600060208201905081810360008301526123ac81612370565b9050919050565b7f45524337323155524953746f726167653a2055524920717565727920666f722060008201527f6e6f6e6578697374656e7420746f6b656e000000000000000000000000000000602082015250565b600061240f603183611a01565b915061241a826123b3565b604082019050919050565b6000602082019050818103600083015261243e81612402565b9050919050565b600081905092915050565b600061245b826119f6565b6124658185612445565b9350612475818560208601611a12565b80840191505092915050565b600061248d8285612450565b91506124998284612450565b91508190509392505050565b7f4552433732313a206f70657261746f7220717565727920666f72206e6f6e657860008201527f697374656e7420746f6b656e0000000000000000000000000000000000000000602082015250565b6000612501602c83611a01565b915061250c826124a5565b604082019050919050565b60006020820190508181036000830152612530816124f4565b9050919050565b7f4552433732313a207472616e736665722066726f6d20696e636f72726563742060008201527f6f776e6572000000000000000000000000000000000000000000000000000000602082015250565b6000612593602583611a01565b915061259e82612537565b604082019050919050565b600060208201905081810360008301526125c281612586565b9050919050565b7f4552433732313a207472616e7366657220746f20746865207a65726f2061646460008201527f7265737300000000000000000000000000000000000000000000000000000000602082015250565b6000612625602483611a01565b9150612630826125c9565b604082019050919050565b6000602082019050818103600083015261265481612618565b9050919050565b7f4e487b7100000000000000000000000000000000000000000000000000000000600052601160045260246000fd5b600061269582611ab1565b91506126a083611ab1565b9250828210156126b3576126b261265b565b5b828203905092915050565b60006126c982611ab1565b91506126d483611ab1565b9250827fffffffffffffffffffffffffffffffffffffffffffffffffffffffffffffffff038211156127095761270861265b565b5b828201905092915050565b7f4552433732313a20617070726f766520746f2063616c6c657200000000000000600082015250565b600061274a601983611a01565b915061275582612714565b602082019050919050565b600060208201905081810360008301526127798161273d565b9050919050565b7f45524337323155524953746f726167653a2055524920736574206f66206e6f6e60008201527f6578697374656e7420746f6b656e000000000000000000000000000000000000602082015250565b60006127dc602e83611a01565b91506127e782612780565b604082019050919050565b6000602082019050818103600083015261280b816127cf565b9050919050565b7f4552433732313a207472616e7366657220746f206e6f6e20455243373231526560008201527f63656976657220696d706c656d656e7465720000000000000000000000000000602082015250565b600061286e603283611a01565b915061287982612812565b604082019050919050565b6000602082019050818103600083015261289d81612861565b9050919050565b7f4552433732314d657461646174613a2055524920717565727920666f72206e6f60008201527f6e6578697374656e7420746f6b656e0000000000000000000000000000000000602082015250565b6000612900602f83611a01565b915061290b826128a4565b604082019050919050565b6000602082019050818103600083015261292f816128f3565b9050919050565b600081519050919050565b600082825260208201905092915050565b600061295d82612936565b6129678185612941565b9350612977818560208601611a12565b61298081611a45565b840191505092915050565b60006080820190506129a06000830187611b46565b6129ad6020830186611b46565b6129ba6040830185611c5c565b81810360608301526129cc8184612952565b905095945050505050565b6000815190506129e681611967565b92915050565b600060208284031215612a0257612a01611931565b5b6000612a10848285016129d7565b91505092915050565b6000612a2482611ab1565b91507fffffffffffffffffffffffffffffffffffffffffffffffffffffffffffffffff8203612a5657612a5561265b565b5b600182019050919050565b7f4e487b7100000000000000000000000000000000000000000000000000000000600052601260045260246000fd5b6000612a9b82611ab1565b9150612aa683611ab1565b925082612ab657612ab5612a61565b5b828204905092915050565b6000612acc82611ab1565b9150612ad783611ab1565b925082612ae757612ae6612a61565b5b828206905092915050565b7f4e487b7100000000000000000000000000000000000000000000000000000000600052603260045260246000fd5b7f4552433732313a206d696e7420746f20746865207a65726f2061646472657373600082015250565b6000612b57602083611a01565b9150612b6282612b21565b602082019050919050565b60006020820190508181036000830152612b8681612b4a565b9050919050565b7f4552433732313a20746f6b656e20616c7265616479206d696e74656400000000600082015250565b6000612bc3601c83611a01565b9150612bce82612b8d565b602082019050919050565b60006020820190508181036000830152612bf281612bb6565b905091905056fea2646970667358221220cbe858dbcc660ce8f6b3949fcd226fd136a5ceb655b1cea70acb88afefc01a6764736f6c634300080e0033",
  "immutableReferences": {},
  "source": "// SPDX-License-Identifier: MIT\npragma solidity ^0.8.0;\n\nimport \"@openzeppelin/contracts/token/ERC721/extensions/ERC721URIStorage.sol\";\nimport \"@openzeppelin/contracts/utils/Counters.sol\";\n\ncontract vokaNFT is ERC721URIStorage {\n    using Counters for Counters.Counter;\n    Counters.Counter private _tokenIds;\n\n    constructor() ERC721(\"vokaNFT\", \"VK\") {\n        _tokenIds.increment();\n    }\n\n    function createNFT(address to, string memory tokenURI)\n        public\n        returns (uint256)\n    {\n        uint256 newNFTID = _tokenIds.current();\n        _safeMint(to, newNFTID);\n        _setTokenURI(newNFTID, tokenURI);\n\n        _tokenIds.increment();\n        return newNFTID;\n    }\n}\n",
  "sourcePath": "/home/ubuntu/tianxu/block_chain/vokaNFT/contracts/vokaNFT.sol",
  "compiler": {
    "name": "solc",
    "version": "0.8.14+commit.80d49f37.Emscripten.clang"
  },
  "schemaVersion": "3.4.7",
  "updatedAt": "2022-05-18T07:52:18.001Z",
  "networkType": "ethereum",
  "devdoc": {
    "kind": "dev",
    "methods": {
      "approve(address,uint256)": {
        "details": "See {IERC721-approve}."
      },
      "balanceOf(address)": {
        "details": "See {IERC721-balanceOf}."
      },
      "getApproved(uint256)": {
        "details": "See {IERC721-getApproved}."
      },
      "isApprovedForAll(address,address)": {
        "details": "See {IERC721-isApprovedForAll}."
      },
      "name()": {
        "details": "See {IERC721Metadata-name}."
      },
      "ownerOf(uint256)": {
        "details": "See {IERC721-ownerOf}."
      },
      "safeTransferFrom(address,address,uint256)": {
        "details": "See {IERC721-safeTransferFrom}."
      },
      "safeTransferFrom(address,address,uint256,bytes)": {
        "details": "See {IERC721-safeTransferFrom}."
      },
      "setApprovalForAll(address,bool)": {
        "details": "See {IERC721-setApprovalForAll}."
      },
      "supportsInterface(bytes4)": {
        "details": "See {IERC165-supportsInterface}."
      },
      "symbol()": {
        "details": "See {IERC721Metadata-symbol}."
      },
      "tokenURI(uint256)": {
        "details": "See {IERC721Metadata-tokenURI}."
      },
      "transferFrom(address,address,uint256)": {
        "details": "See {IERC721-transferFrom}."
      }
    },
    "version": 1
  },
  "userdoc": {
    "kind": "user",
    "methods": {},
    "version": 1
  }
}