{
  "contractName": "vokaNFT",
  "abi": [
    {
      "inputs": [],
      "stateMutability": "nonpayable",
      "type": "constructor"
    },
    {
      "anonymous": false,
      "inputs": [
        {
          "indexed": true,
          "internalType": "address",
          "name": "owner",
          "type": "address"
        },
        {
          "indexed": true,
          "internalType": "address",
          "name": "approved",
          "type": "address"
        },
        {
          "indexed": true,
          "internalType": "uint256",
          "name": "tokenId",
          "type": "uint256"
        }
      ],
      "name": "Approval",
      "type": "event"
    },
    {
      "anonymous": false,
      "inputs": [
        {
          "indexed": true,
          "internalType": "address",
          "name": "owner",
          "type": "address"
        },
        {
          "indexed": true,
          "internalType": "address",
          "name": "operator",
          "type": "address"
        },
        {
          "indexed": false,
          "internalType": "bool",
          "name": "approved",
          "type": "bool"
        }
      ],
      "name": "ApprovalForAll",
      "type": "event"
    },
    {
      "anonymous": false,
      "inputs": [
        {
          "indexed": true,
          "internalType": "address",
          "name": "previousOwner",
          "type": "address"
        },
        {
          "indexed": true,
          "internalType": "address",
          "name": "newOwner",
          "type": "address"
        }
      ],
      "name": "OwnershipTransferred",
      "type": "event"
    },
    {
      "anonymous": false,
      "inputs": [
        {
          "indexed": true,
          "internalType": "address",
          "name": "from",
          "type": "address"
        },
        {
          "indexed": true,
          "internalType": "address",
          "name": "to",
          "type": "address"
        },
        {
          "indexed": true,
          "internalType": "uint256",
          "name": "tokenId",
          "type": "uint256"
        }
      ],
      "name": "Transfer",
      "type": "event"
    },
    {
      "inputs": [
        {
          "internalType": "address",
          "name": "to",
          "type": "address"
        },
        {
          "internalType": "uint256",
          "name": "tokenId",
          "type": "uint256"
        }
      ],
      "name": "approve",
      "outputs": [],
      "stateMutability": "nonpayable",
      "type": "function"
    },
    {
      "inputs": [
        {
          "internalType": "address",
          "name": "owner",
          "type": "address"
        }
      ],
      "name": "balanceOf",
      "outputs": [
        {
          "internalType": "uint256",
          "name": "",
          "type": "uint256"
        }
      ],
      "stateMutability": "view",
      "type": "function",
      "constant": true
    },
    {
      "inputs": [
        {
          "internalType": "uint256",
          "name": "tokenId",
          "type": "uint256"
        }
      ],
      "name": "getApproved",
      "outputs": [
        {
          "internalType": "address",
          "name": "",
          "type": "address"
        }
      ],
      "stateMutability": "view",
      "type": "function",
      "constant": true
    },
    {
      "inputs": [
        {
          "internalType": "address",
          "name": "owner",
          "type": "address"
        },
        {
          "internalType": "address",
          "name": "operator",
          "type": "address"
        }
      ],
      "name": "isApprovedForAll",
      "outputs": [
        {
          "internalType": "bool",
          "name": "",
          "type": "bool"
        }
      ],
      "stateMutability": "view",
      "type": "function",
      "constant": true
    },
    {
      "inputs": [],
      "name": "name",
      "outputs": [
        {
          "internalType": "string",
          "name": "",
          "type": "string"
        }
      ],
      "stateMutability": "view",
      "type": "function",
      "constant": true
    },
    {
      "inputs": [],
      "name": "owner",
      "outputs": [
        {
          "internalType": "address",
          "name": "",
          "type": "address"
        }
      ],
      "stateMutability": "view",
      "type": "function",
      "constant": true
    },
    {
      "inputs": [
        {
          "internalType": "uint256",
          "name": "tokenId",
          "type": "uint256"
        }
      ],
      "name": "ownerOf",
      "outputs": [
        {
          "internalType": "address",
          "name": "",
          "type": "address"
        }
      ],
      "stateMutability": "view",
      "type": "function",
      "constant": true
    },
    {
      "inputs": [],
      "name": "renounceOwnership",
      "outputs": [],
      "stateMutability": "nonpayable",
      "type": "function"
    },
    {
      "inputs": [
        {
          "internalType": "address",
          "name": "from",
          "type": "address"
        },
        {
          "internalType": "address",
          "name": "to",
          "type": "address"
        },
        {
          "internalType": "uint256",
          "name": "tokenId",
          "type": "uint256"
        }
      ],
      "name": "safeTransferFrom",
      "outputs": [],
      "stateMutability": "nonpayable",
      "type": "function"
    },
    {
      "inputs": [
        {
          "internalType": "address",
          "name": "from",
          "type": "address"
        },
        {
          "internalType": "address",
          "name": "to",
          "type": "address"
        },
        {
          "internalType": "uint256",
          "name": "tokenId",
          "type": "uint256"
        },
        {
          "internalType": "bytes",
          "name": "_data",
          "type": "bytes"
        }
      ],
      "name": "safeTransferFrom",
      "outputs": [],
      "stateMutability": "nonpayable",
      "type": "function"
    },
    {
      "inputs": [
        {
          "internalType": "address",
          "name": "operator",
          "type": "address"
        },
        {
          "internalType": "bool",
          "name": "approved",
          "type": "bool"
        }
      ],
      "name": "setApprovalForAll",
      "outputs": [],
      "stateMutability": "nonpayable",
      "type": "function"
    },
    {
      "inputs": [
        {
          "internalType": "bytes4",
          "name": "interfaceId",
          "type": "bytes4"
        }
      ],
      "name": "supportsInterface",
      "outputs": [
        {
          "internalType": "bool",
          "name": "",
          "type": "bool"
        }
      ],
      "stateMutability": "view",
      "type": "function",
      "constant": true
    },
    {
      "inputs": [],
      "name": "symbol",
      "outputs": [
        {
          "internalType": "string",
          "name": "",
          "type": "string"
        }
      ],
      "stateMutability": "view",
      "type": "function",
      "constant": true
    },
    {
      "inputs": [
        {
          "internalType": "uint256",
          "name": "tokenId",
          "type": "uint256"
        }
      ],
      "name": "tokenURI",
      "outputs": [
        {
          "internalType": "string",
          "name": "",
          "type": "string"
        }
      ],
      "stateMutability": "view",
      "type": "function",
      "constant": true
    },
    {
      "inputs": [
        {
          "internalType": "address",
          "name": "from",
          "type": "address"
        },
        {
          "internalType": "address",
          "name": "to",
          "type": "address"
        },
        {
          "internalType": "uint256",
          "name": "tokenId",
          "type": "uint256"
        }
      ],
      "name": "transferFrom",
      "outputs": [],
      "stateMutability": "nonpayable",
      "type": "function"
    },
    {
      "inputs": [
        {
          "internalType": "address",
          "name": "newOwner",
          "type": "address"
        }
      ],
      "name": "transferOwnership",
      "outputs": [],
      "stateMutability": "nonpayable",
      "type": "function"
    },
    {
      "inputs": [
        {
          "internalType": "address",
          "name": "to",
          "type": "address"
        },
        {
          "internalType": "string",
          "name": "tokenURI",
          "type": "string"
        }
      ],
      "name": "createNFT",
      "outputs": [
        {
          "internalType": "uint256",
          "name": "",
          "type": "uint256"
        }
      ],
      "stateMutability": "nonpayable",
      "type": "function"
    }
  ],
  "bytecode": "0x60806040523480156200001157600080fd5b506040518060400160405280600781526020017f766f6b614e4654000000000000000000000000000000000000000000000000008152506040518060400160405280600281526020017f564b000000000000000000000000000000000000000000000000000000000000815250816000908051906020019062000096929190620001a6565b508060019080519060200190620000af929190620001a6565b505050620000d2620000c6620000d860201b60201c565b620000e060201b60201c565b620002ba565b600033905090565b6000600760009054906101000a900473ffffffffffffffffffffffffffffffffffffffff16905081600760006101000a81548173ffffffffffffffffffffffffffffffffffffffff021916908373ffffffffffffffffffffffffffffffffffffffff1602179055508173ffffffffffffffffffffffffffffffffffffffff168173ffffffffffffffffffffffffffffffffffffffff167f8be0079c531659141344cd1fd0a4f28419497f9722a3daafe3b4186f6b6457e060405160405180910390a35050565b828054620001b49062000285565b90600052602060002090601f016020900481019282620001d8576000855562000224565b82601f10620001f357805160ff191683800117855562000224565b8280016001018555821562000224579182015b828111156200022357825182559160200191906001019062000206565b5b50905062000233919062000237565b5090565b5b808211156200025257600081600090555060010162000238565b5090565b7f4e487b7100000000000000000000000000000000000000000000000000000000600052602260045260246000fd5b600060028204905060018216806200029e57607f821691505b602082108103620002b457620002b362000256565b5b50919050565b61300580620002ca6000396000f3fe608060405234801561001057600080fd5b506004361061010b5760003560e01c8063715018a6116100a2578063a561403311610071578063a5614033146102a4578063b88d4fde146102d4578063c87b56dd146102f0578063e985e9c514610320578063f2fde38b146103505761010b565b8063715018a6146102425780638da5cb5b1461024c57806395d89b411461026a578063a22cb465146102885761010b565b806323b872dd116100de57806323b872dd146101aa57806342842e0e146101c65780636352211e146101e257806370a08231146102125761010b565b806301ffc9a71461011057806306fdde0314610140578063081812fc1461015e578063095ea7b31461018e575b600080fd5b61012a60048036038101906101259190611c6b565b61036c565b6040516101379190611cb3565b60405180910390f35b61014861044e565b6040516101559190611d67565b60405180910390f35b61017860048036038101906101739190611dbf565b6104e0565b6040516101859190611e2d565b60405180910390f35b6101a860048036038101906101a39190611e74565b610565565b005b6101c460048036038101906101bf9190611eb4565b61067c565b005b6101e060048036038101906101db9190611eb4565b6106dc565b005b6101fc60048036038101906101f79190611dbf565b6106fc565b6040516102099190611e2d565b60405180910390f35b61022c60048036038101906102279190611f07565b6107ad565b6040516102399190611f43565b60405180910390f35b61024a610864565b005b6102546108ec565b6040516102619190611e2d565b60405180910390f35b610272610916565b60405161027f9190611d67565b60405180910390f35b6102a2600480360381019061029d9190611f8a565b6109a8565b005b6102be60048036038101906102b991906120ff565b6109be565b6040516102cb9190611f43565b60405180910390f35b6102ee60048036038101906102e991906121fc565b610a72565b005b61030a60048036038101906103059190611dbf565b610ad4565b6040516103179190611d67565b60405180910390f35b61033a6004803603810190610335919061227f565b610c25565b6040516103479190611cb3565b60405180910390f35b61036a60048036038101906103659190611f07565b610cb9565b005b60007f80ac58cd000000000000000000000000000000000000000000000000000000007bffffffffffffffffffffffffffffffffffffffffffffffffffffffff1916827bffffffffffffffffffffffffffffffffffffffffffffffffffffffff1916148061043757507f5b5e139f000000000000000000000000000000000000000000000000000000007bffffffffffffffffffffffffffffffffffffffffffffffffffffffff1916827bffffffffffffffffffffffffffffffffffffffffffffffffffffffff1916145b80610447575061044682610db0565b5b9050919050565b60606000805461045d906122ee565b80601f0160208091040260200160405190810160405280929190818152602001828054610489906122ee565b80156104d65780601f106104ab576101008083540402835291602001916104d6565b820191906000526020600020905b8154815290600101906020018083116104b957829003601f168201915b5050505050905090565b60006104eb82610e1a565b61052a576040517f08c379a000000000000000000000000000000000000000000000000000000000815260040161052190612391565b60405180910390fd5b6004600083815260200190815260200160002060009054906101000a900473ffffffffffffffffffffffffffffffffffffffff169050919050565b6000610570826106fc565b90508073ffffffffffffffffffffffffffffffffffffffff168373ffffffffffffffffffffffffffffffffffffffff16036105e0576040517f08c379a00000000000000000000000000000000000000000000000000000000081526004016105d790612423565b60405180910390fd5b8073ffffffffffffffffffffffffffffffffffffffff166105ff610e86565b73ffffffffffffffffffffffffffffffffffffffff16148061062e575061062d81610628610e86565b610c25565b5b61066d576040517f08c379a0000000000000000000000000000000000000000000000000000000008152600401610664906124b5565b60405180910390fd5b6106778383610e8e565b505050565b61068d610687610e86565b82610f47565b6106cc576040517f08c379a00000000000000000000000000000000000000000000000000000000081526004016106c390612547565b60405180910390fd5b6106d7838383611025565b505050565b6106f783838360405180602001604052806000815250610a72565b505050565b6000806002600084815260200190815260200160002060009054906101000a900473ffffffffffffffffffffffffffffffffffffffff169050600073ffffffffffffffffffffffffffffffffffffffff168173ffffffffffffffffffffffffffffffffffffffff16036107a4576040517f08c379a000000000000000000000000000000000000000000000000000000000815260040161079b906125d9565b60405180910390fd5b80915050919050565b60008073ffffffffffffffffffffffffffffffffffffffff168273ffffffffffffffffffffffffffffffffffffffff160361081d576040517f08c379a00000000000000000000000000000000000000000000000000000000081526004016108149061266b565b60405180910390fd5b600360008373ffffffffffffffffffffffffffffffffffffffff1673ffffffffffffffffffffffffffffffffffffffff168152602001908152602001600020549050919050565b61086c610e86565b73ffffffffffffffffffffffffffffffffffffffff1661088a6108ec565b73ffffffffffffffffffffffffffffffffffffffff16146108e0576040517f08c379a00000000000000000000000000000000000000000000000000000000081526004016108d7906126d7565b60405180910390fd5b6108ea600061128b565b565b6000600760009054906101000a900473ffffffffffffffffffffffffffffffffffffffff16905090565b606060018054610925906122ee565b80601f0160208091040260200160405190810160405280929190818152602001828054610951906122ee565b801561099e5780601f106109735761010080835404028352916020019161099e565b820191906000526020600020905b81548152906001019060200180831161098157829003601f168201915b5050505050905090565b6109ba6109b3610e86565b8383611351565b5050565b60006109c8610e86565b73ffffffffffffffffffffffffffffffffffffffff166109e66108ec565b73ffffffffffffffffffffffffffffffffffffffff1614610a3c576040517f08c379a0000000000000000000000000000000000000000000000000000000008152600401610a33906126d7565b60405180910390fd5b6000610a4860086114bd565b9050610a5484826114cb565b610a5e81846116a4565b610a686008611718565b8091505092915050565b610a83610a7d610e86565b83610f47565b610ac2576040517f08c379a0000000000000000000000000000000000000000000000000000000008152600401610ab990612547565b60405180910390fd5b610ace8484848461172e565b50505050565b6060610adf82610e1a565b610b1e576040517f08c379a0000000000000000000000000000000000000000000000000000000008152600401610b1590612769565b60405180910390fd5b6000600660008481526020019081526020016000208054610b3e906122ee565b80601f0160208091040260200160405190810160405280929190818152602001828054610b6a906122ee565b8015610bb75780601f10610b8c57610100808354040283529160200191610bb7565b820191906000526020600020905b815481529060010190602001808311610b9a57829003601f168201915b505050505090506000610bc861178a565b90506000815103610bdd578192505050610c20565b600082511115610c12578082604051602001610bfa9291906127c5565b60405160208183030381529060405292505050610c20565b610c1b846117a1565b925050505b919050565b6000600560008473ffffffffffffffffffffffffffffffffffffffff1673ffffffffffffffffffffffffffffffffffffffff16815260200190815260200160002060008373ffffffffffffffffffffffffffffffffffffffff1673ffffffffffffffffffffffffffffffffffffffff16815260200190815260200160002060009054906101000a900460ff16905092915050565b610cc1610e86565b73ffffffffffffffffffffffffffffffffffffffff16610cdf6108ec565b73ffffffffffffffffffffffffffffffffffffffff1614610d35576040517f08c379a0000000000000000000000000000000000000000000000000000000008152600401610d2c906126d7565b60405180910390fd5b600073ffffffffffffffffffffffffffffffffffffffff168173ffffffffffffffffffffffffffffffffffffffff1603610da4576040517f08c379a0000000000000000000000000000000000000000000000000000000008152600401610d9b9061285b565b60405180910390fd5b610dad8161128b565b50565b60007f01ffc9a7000000000000000000000000000000000000000000000000000000007bffffffffffffffffffffffffffffffffffffffffffffffffffffffff1916827bffffffffffffffffffffffffffffffffffffffffffffffffffffffff1916149050919050565b60008073ffffffffffffffffffffffffffffffffffffffff166002600084815260200190815260200160002060009054906101000a900473ffffffffffffffffffffffffffffffffffffffff1673ffffffffffffffffffffffffffffffffffffffff1614159050919050565b600033905090565b816004600083815260200190815260200160002060006101000a81548173ffffffffffffffffffffffffffffffffffffffff021916908373ffffffffffffffffffffffffffffffffffffffff160217905550808273ffffffffffffffffffffffffffffffffffffffff16610f01836106fc565b73ffffffffffffffffffffffffffffffffffffffff167f8c5be1e5ebec7d5bd14f71427d1e84f3dd0314c0f7b2291e5b200ac8c7c3b92560405160405180910390a45050565b6000610f5282610e1a565b610f91576040517f08c379a0000000000000000000000000000000000000000000000000000000008152600401610f88906128ed565b60405180910390fd5b6000610f9c836106fc565b90508073ffffffffffffffffffffffffffffffffffffffff168473ffffffffffffffffffffffffffffffffffffffff161480610fde5750610fdd8185610c25565b5b8061101c57508373ffffffffffffffffffffffffffffffffffffffff16611004846104e0565b73ffffffffffffffffffffffffffffffffffffffff16145b91505092915050565b8273ffffffffffffffffffffffffffffffffffffffff16611045826106fc565b73ffffffffffffffffffffffffffffffffffffffff161461109b576040517f08c379a00000000000000000000000000000000000000000000000000000000081526004016110929061297f565b60405180910390fd5b600073ffffffffffffffffffffffffffffffffffffffff168273ffffffffffffffffffffffffffffffffffffffff160361110a576040517f08c379a000000000000000000000000000000000000000000000000000000000815260040161110190612a11565b60405180910390fd5b611115838383611848565b611120600082610e8e565b6001600360008573ffffffffffffffffffffffffffffffffffffffff1673ffffffffffffffffffffffffffffffffffffffff16815260200190815260200160002060008282546111709190612a60565b925050819055506001600360008473ffffffffffffffffffffffffffffffffffffffff1673ffffffffffffffffffffffffffffffffffffffff16815260200190815260200160002060008282546111c79190612a94565b92505081905550816002600083815260200190815260200160002060006101000a81548173ffffffffffffffffffffffffffffffffffffffff021916908373ffffffffffffffffffffffffffffffffffffffff160217905550808273ffffffffffffffffffffffffffffffffffffffff168473ffffffffffffffffffffffffffffffffffffffff167fddf252ad1be2c89b69c2b068fc378daa952ba7f163c4a11628f55a4df523b3ef60405160405180910390a461128683838361184d565b505050565b6000600760009054906101000a900473ffffffffffffffffffffffffffffffffffffffff16905081600760006101000a81548173ffffffffffffffffffffffffffffffffffffffff021916908373ffffffffffffffffffffffffffffffffffffffff1602179055508173ffffffffffffffffffffffffffffffffffffffff168173ffffffffffffffffffffffffffffffffffffffff167f8be0079c531659141344cd1fd0a4f28419497f9722a3daafe3b4186f6b6457e060405160405180910390a35050565b8173ffffffffffffffffffffffffffffffffffffffff168373ffffffffffffffffffffffffffffffffffffffff16036113bf576040517f08c379a00000000000000000000000000000000000000000000000000000000081526004016113b690612b36565b60405180910390fd5b80600560008573ffffffffffffffffffffffffffffffffffffffff1673ffffffffffffffffffffffffffffffffffffffff16815260200190815260200160002060008473ffffffffffffffffffffffffffffffffffffffff1673ffffffffffffffffffffffffffffffffffffffff16815260200190815260200160002060006101000a81548160ff0219169083151502179055508173ffffffffffffffffffffffffffffffffffffffff168373ffffffffffffffffffffffffffffffffffffffff167f17307eab39ab6107e8899845ad3d59bd9653f200f220920489ca2b5937696c31836040516114b09190611cb3565b60405180910390a3505050565b600081600001549050919050565b600073ffffffffffffffffffffffffffffffffffffffff168273ffffffffffffffffffffffffffffffffffffffff160361153a576040517f08c379a000000000000000000000000000000000000000000000000000000000815260040161153190612ba2565b60405180910390fd5b61154381610e1a565b15611583576040517f08c379a000000000000000000000000000000000000000000000000000000000815260040161157a90612c0e565b60405180910390fd5b61158f60008383611848565b6001600360008473ffffffffffffffffffffffffffffffffffffffff1673ffffffffffffffffffffffffffffffffffffffff16815260200190815260200160002060008282546115df9190612a94565b92505081905550816002600083815260200190815260200160002060006101000a81548173ffffffffffffffffffffffffffffffffffffffff021916908373ffffffffffffffffffffffffffffffffffffffff160217905550808273ffffffffffffffffffffffffffffffffffffffff16600073ffffffffffffffffffffffffffffffffffffffff167fddf252ad1be2c89b69c2b068fc378daa952ba7f163c4a11628f55a4df523b3ef60405160405180910390a46116a06000838361184d565b5050565b6116ad82610e1a565b6116ec576040517f08c379a00000000000000000000000000000000000000000000000000000000081526004016116e390612ca0565b60405180910390fd5b80600660008481526020019081526020016000209080519060200190611713929190611b5c565b505050565b6001816000016000828254019250508190555050565b611739848484611025565b61174584848484611852565b611784576040517f08c379a000000000000000000000000000000000000000000000000000000000815260040161177b90612d32565b60405180910390fd5b50505050565b606060405180602001604052806000815250905090565b60606117ac82610e1a565b6117eb576040517f08c379a00000000000000000000000000000000000000000000000000000000081526004016117e290612dc4565b60405180910390fd5b60006117f561178a565b905060008151116118155760405180602001604052806000815250611840565b8061181f846119d9565b6040516020016118309291906127c5565b6040516020818303038152906040525b915050919050565b505050565b505050565b60006118738473ffffffffffffffffffffffffffffffffffffffff16611b39565b156119cc578373ffffffffffffffffffffffffffffffffffffffff1663150b7a0261189c610e86565b8786866040518563ffffffff1660e01b81526004016118be9493929190612e39565b6020604051808303816000875af19250505080156118fa57506040513d601f19601f820116820180604052508101906118f79190612e9a565b60015b61197c573d806000811461192a576040519150601f19603f3d011682016040523d82523d6000602084013e61192f565b606091505b506000815103611974576040517f08c379a000000000000000000000000000000000000000000000000000000000815260040161196b90612d32565b60405180910390fd5b805181602001fd5b63150b7a0260e01b7bffffffffffffffffffffffffffffffffffffffffffffffffffffffff1916817bffffffffffffffffffffffffffffffffffffffffffffffffffffffff1916149150506119d1565b600190505b949350505050565b606060008203611a20576040518060400160405280600181526020017f30000000000000000000000000000000000000000000000000000000000000008152509050611b34565b600082905060005b60008214611a52578080611a3b90612ec7565b915050600a82611a4b9190612f3e565b9150611a28565b60008167ffffffffffffffff811115611a6e57611a6d611fd4565b5b6040519080825280601f01601f191660200182016040528015611aa05781602001600182028036833780820191505090505b5090505b60008514611b2d57600182611ab99190612a60565b9150600a85611ac89190612f6f565b6030611ad49190612a94565b60f81b818381518110611aea57611ae9612fa0565b5b60200101907effffffffffffffffffffffffffffffffffffffffffffffffffffffffffffff1916908160001a905350600a85611b269190612f3e565b9450611aa4565b8093505050505b919050565b6000808273ffffffffffffffffffffffffffffffffffffffff163b119050919050565b828054611b68906122ee565b90600052602060002090601f016020900481019282611b8a5760008555611bd1565b82601f10611ba357805160ff1916838001178555611bd1565b82800160010185558215611bd1579182015b82811115611bd0578251825591602001919060010190611bb5565b5b509050611bde9190611be2565b5090565b5b80821115611bfb576000816000905550600101611be3565b5090565b6000604051905090565b600080fd5b600080fd5b60007fffffffff0000000000000000000000000000000000000000000000000000000082169050919050565b611c4881611c13565b8114611c5357600080fd5b50565b600081359050611c6581611c3f565b92915050565b600060208284031215611c8157611c80611c09565b5b6000611c8f84828501611c56565b91505092915050565b60008115159050919050565b611cad81611c98565b82525050565b6000602082019050611cc86000830184611ca4565b92915050565b600081519050919050565b600082825260208201905092915050565b60005b83811015611d08578082015181840152602081019050611ced565b83811115611d17576000848401525b50505050565b6000601f19601f8301169050919050565b6000611d3982611cce565b611d438185611cd9565b9350611d53818560208601611cea565b611d5c81611d1d565b840191505092915050565b60006020820190508181036000830152611d818184611d2e565b905092915050565b6000819050919050565b611d9c81611d89565b8114611da757600080fd5b50565b600081359050611db981611d93565b92915050565b600060208284031215611dd557611dd4611c09565b5b6000611de384828501611daa565b91505092915050565b600073ffffffffffffffffffffffffffffffffffffffff82169050919050565b6000611e1782611dec565b9050919050565b611e2781611e0c565b82525050565b6000602082019050611e426000830184611e1e565b92915050565b611e5181611e0c565b8114611e5c57600080fd5b50565b600081359050611e6e81611e48565b92915050565b60008060408385031215611e8b57611e8a611c09565b5b6000611e9985828601611e5f565b9250506020611eaa85828601611daa565b9150509250929050565b600080600060608486031215611ecd57611ecc611c09565b5b6000611edb86828701611e5f565b9350506020611eec86828701611e5f565b9250506040611efd86828701611daa565b9150509250925092565b600060208284031215611f1d57611f1c611c09565b5b6000611f2b84828501611e5f565b91505092915050565b611f3d81611d89565b82525050565b6000602082019050611f586000830184611f34565b92915050565b611f6781611c98565b8114611f7257600080fd5b50565b600081359050611f8481611f5e565b92915050565b60008060408385031215611fa157611fa0611c09565b5b6000611faf85828601611e5f565b9250506020611fc085828601611f75565b9150509250929050565b600080fd5b600080fd5b7f4e487b7100000000000000000000000000000000000000000000000000000000600052604160045260246000fd5b61200c82611d1d565b810181811067ffffffffffffffff8211171561202b5761202a611fd4565b5b80604052505050565b600061203e611bff565b905061204a8282612003565b919050565b600067ffffffffffffffff82111561206a57612069611fd4565b5b61207382611d1d565b9050602081019050919050565b82818337600083830152505050565b60006120a261209d8461204f565b612034565b9050828152602081018484840111156120be576120bd611fcf565b5b6120c9848285612080565b509392505050565b600082601f8301126120e6576120e5611fca565b5b81356120f684826020860161208f565b91505092915050565b6000806040838503121561211657612115611c09565b5b600061212485828601611e5f565b925050602083013567ffffffffffffffff81111561214557612144611c0e565b5b612151858286016120d1565b9150509250929050565b600067ffffffffffffffff82111561217657612175611fd4565b5b61217f82611d1d565b9050602081019050919050565b600061219f61219a8461215b565b612034565b9050828152602081018484840111156121bb576121ba611fcf565b5b6121c6848285612080565b509392505050565b600082601f8301126121e3576121e2611fca565b5b81356121f384826020860161218c565b91505092915050565b6000806000806080858703121561221657612215611c09565b5b600061222487828801611e5f565b945050602061223587828801611e5f565b935050604061224687828801611daa565b925050606085013567ffffffffffffffff81111561226757612266611c0e565b5b612273878288016121ce565b91505092959194509250565b6000806040838503121561229657612295611c09565b5b60006122a485828601611e5f565b92505060206122b585828601611e5f565b9150509250929050565b7f4e487b7100000000000000000000000000000000000000000000000000000000600052602260045260246000fd5b6000600282049050600182168061230657607f821691505b602082108103612319576123186122bf565b5b50919050565b7f4552433732313a20617070726f76656420717565727920666f72206e6f6e657860008201527f697374656e7420746f6b656e0000000000000000000000000000000000000000602082015250565b600061237b602c83611cd9565b91506123868261231f565b604082019050919050565b600060208201905081810360008301526123aa8161236e565b9050919050565b7f4552433732313a20617070726f76616c20746f2063757272656e74206f776e6560008201527f7200000000000000000000000000000000000000000000000000000000000000602082015250565b600061240d602183611cd9565b9150612418826123b1565b604082019050919050565b6000602082019050818103600083015261243c81612400565b9050919050565b7f4552433732313a20617070726f76652063616c6c6572206973206e6f74206f7760008201527f6e6572206e6f7220617070726f76656420666f7220616c6c0000000000000000602082015250565b600061249f603883611cd9565b91506124aa82612443565b604082019050919050565b600060208201905081810360008301526124ce81612492565b9050919050565b7f4552433732313a207472616e736665722063616c6c6572206973206e6f74206f60008201527f776e6572206e6f7220617070726f766564000000000000000000000000000000602082015250565b6000612531603183611cd9565b915061253c826124d5565b604082019050919050565b6000602082019050818103600083015261256081612524565b9050919050565b7f4552433732313a206f776e657220717565727920666f72206e6f6e657869737460008201527f656e7420746f6b656e0000000000000000000000000000000000000000000000602082015250565b60006125c3602983611cd9565b91506125ce82612567565b604082019050919050565b600060208201905081810360008301526125f2816125b6565b9050919050565b7f4552433732313a2062616c616e636520717565727920666f7220746865207a6560008201527f726f206164647265737300000000000000000000000000000000000000000000602082015250565b6000612655602a83611cd9565b9150612660826125f9565b604082019050919050565b6000602082019050818103600083015261268481612648565b9050919050565b7f4f776e61626c653a2063616c6c6572206973206e6f7420746865206f776e6572600082015250565b60006126c1602083611cd9565b91506126cc8261268b565b602082019050919050565b600060208201905081810360008301526126f0816126b4565b9050919050565b7f45524337323155524953746f726167653a2055524920717565727920666f722060008201527f6e6f6e6578697374656e7420746f6b656e000000000000000000000000000000602082015250565b6000612753603183611cd9565b915061275e826126f7565b604082019050919050565b6000602082019050818103600083015261278281612746565b9050919050565b600081905092915050565b600061279f82611cce565b6127a98185612789565b93506127b9818560208601611cea565b80840191505092915050565b60006127d18285612794565b91506127dd8284612794565b91508190509392505050565b7f4f776e61626c653a206e6577206f776e657220697320746865207a65726f206160008201527f6464726573730000000000000000000000000000000000000000000000000000602082015250565b6000612845602683611cd9565b9150612850826127e9565b604082019050919050565b6000602082019050818103600083015261287481612838565b9050919050565b7f4552433732313a206f70657261746f7220717565727920666f72206e6f6e657860008201527f697374656e7420746f6b656e0000000000000000000000000000000000000000602082015250565b60006128d7602c83611cd9565b91506128e28261287b565b604082019050919050565b60006020820190508181036000830152612906816128ca565b9050919050565b7f4552433732313a207472616e736665722066726f6d20696e636f72726563742060008201527f6f776e6572000000000000000000000000000000000000000000000000000000602082015250565b6000612969602583611cd9565b91506129748261290d565b604082019050919050565b600060208201905081810360008301526129988161295c565b9050919050565b7f4552433732313a207472616e7366657220746f20746865207a65726f2061646460008201527f7265737300000000000000000000000000000000000000000000000000000000602082015250565b60006129fb602483611cd9565b9150612a068261299f565b604082019050919050565b60006020820190508181036000830152612a2a816129ee565b9050919050565b7f4e487b7100000000000000000000000000000000000000000000000000000000600052601160045260246000fd5b6000612a6b82611d89565b9150612a7683611d89565b925082821015612a8957612a88612a31565b5b828203905092915050565b6000612a9f82611d89565b9150612aaa83611d89565b9250827fffffffffffffffffffffffffffffffffffffffffffffffffffffffffffffffff03821115612adf57612ade612a31565b5b828201905092915050565b7f4552433732313a20617070726f766520746f2063616c6c657200000000000000600082015250565b6000612b20601983611cd9565b9150612b2b82612aea565b602082019050919050565b60006020820190508181036000830152612b4f81612b13565b9050919050565b7f4552433732313a206d696e7420746f20746865207a65726f2061646472657373600082015250565b6000612b8c602083611cd9565b9150612b9782612b56565b602082019050919050565b60006020820190508181036000830152612bbb81612b7f565b9050919050565b7f4552433732313a20746f6b656e20616c7265616479206d696e74656400000000600082015250565b6000612bf8601c83611cd9565b9150612c0382612bc2565b602082019050919050565b60006020820190508181036000830152612c2781612beb565b9050919050565b7f45524337323155524953746f726167653a2055524920736574206f66206e6f6e60008201527f6578697374656e7420746f6b656e000000000000000000000000000000000000602082015250565b6000612c8a602e83611cd9565b9150612c9582612c2e565b604082019050919050565b60006020820190508181036000830152612cb981612c7d565b9050919050565b7f4552433732313a207472616e7366657220746f206e6f6e20455243373231526560008201527f63656976657220696d706c656d656e7465720000000000000000000000000000602082015250565b6000612d1c603283611cd9565b9150612d2782612cc0565b604082019050919050565b60006020820190508181036000830152612d4b81612d0f565b9050919050565b7f4552433732314d657461646174613a2055524920717565727920666f72206e6f60008201527f6e6578697374656e7420746f6b656e0000000000000000000000000000000000602082015250565b6000612dae602f83611cd9565b9150612db982612d52565b604082019050919050565b60006020820190508181036000830152612ddd81612da1565b9050919050565b600081519050919050565b600082825260208201905092915050565b6000612e0b82612de4565b612e158185612def565b9350612e25818560208601611cea565b612e2e81611d1d565b840191505092915050565b6000608082019050612e4e6000830187611e1e565b612e5b6020830186611e1e565b612e686040830185611f34565b8181036060830152612e7a8184612e00565b905095945050505050565b600081519050612e9481611c3f565b92915050565b600060208284031215612eb057612eaf611c09565b5b6000612ebe84828501612e85565b91505092915050565b6000612ed282611d89565b91507fffffffffffffffffffffffffffffffffffffffffffffffffffffffffffffffff8203612f0457612f03612a31565b5b600182019050919050565b7f4e487b7100000000000000000000000000000000000000000000000000000000600052601260045260246000fd5b6000612f4982611d89565b9150612f5483611d89565b925082612f6457612f63612f0f565b5b828204905092915050565b6000612f7a82611d89565b9150612f8583611d89565b925082612f9557612f94612f0f565b5b828206905092915050565b7f4e487b7100000000000000000000000000000000000000000000000000000000600052603260045260246000fdfea26469706673582212203d613a2248016fd37e17cdada0e941de3412336c4954a4a8e184a76870e5939f64736f6c634300080d0033",
  "immutableReferences": {},
  "source": "// contracts/GameItem.sol\n// SPDX-License-Identifier: MIT\npragma solidity >=0.4.22 <0.9.0;\n\nimport \"@openzeppelin/contracts/token/ERC721/extensions/ERC721URIStorage.sol\";\nimport \"@openzeppelin/contracts/access/Ownable.sol\";\nimport \"@openzeppelin/contracts/utils/Counters.sol\";\n\ncontract vokaNFT is ERC721URIStorage, Ownable {\n    using Counters for Counters.Counter;\n    Counters.Counter private _tokenIds;\n\n    constructor() ERC721(\"vokaNFT\", \"VK\") {}\n\n    function createNFT(address to, string memory tokenURI)\n        public onlyOwner\n        returns (uint256)\n    {\n        uint256 newNFTID = _tokenIds.current();\n        _mint(to, newNFTID);\n        _setTokenURI(newNFTID, tokenURI);\n\n        _tokenIds.increment();\n        return newNFTID;\n    }\n}\n",
  "sourcePath": "/home/ubuntu/tianxu/block_chain/vokaNFT/contracts/vokaNFT.sol",
  "compiler": {
    "name": "solc",
    "version": "0.8.13+commit.abaa5c0e.Emscripten.clang"
  },
  "schemaVersion": "3.4.7",
  "updatedAt": "2022-05-11T09:33:30.334Z",
  "networkType": "ethereum",
  "devdoc": {
    "kind": "dev",
    "methods": {
      "approve(address,uint256)": {
        "details": "See {IERC721-approve}."
      },
      "balanceOf(address)": {
        "details": "See {IERC721-balanceOf}."
      },
      "getApproved(uint256)": {
        "details": "See {IERC721-getApproved}."
      },
      "isApprovedForAll(address,address)": {
        "details": "See {IERC721-isApprovedForAll}."
      },
      "name()": {
        "details": "See {IERC721Metadata-name}."
      },
      "owner()": {
        "details": "Returns the address of the current owner."
      },
      "ownerOf(uint256)": {
        "details": "See {IERC721-ownerOf}."
      },
      "renounceOwnership()": {
        "details": "Leaves the contract without owner. It will not be possible to call `onlyOwner` functions anymore. Can only be called by the current owner. NOTE: Renouncing ownership will leave the contract without an owner, thereby removing any functionality that is only available to the owner."
      },
      "safeTransferFrom(address,address,uint256)": {
        "details": "See {IERC721-safeTransferFrom}."
      },
      "safeTransferFrom(address,address,uint256,bytes)": {
        "details": "See {IERC721-safeTransferFrom}."
      },
      "setApprovalForAll(address,bool)": {
        "details": "See {IERC721-setApprovalForAll}."
      },
      "supportsInterface(bytes4)": {
        "details": "See {IERC165-supportsInterface}."
      },
      "symbol()": {
        "details": "See {IERC721Metadata-symbol}."
      },
      "tokenURI(uint256)": {
        "details": "See {IERC721Metadata-tokenURI}."
      },
      "transferFrom(address,address,uint256)": {
        "details": "See {IERC721-transferFrom}."
      },
      "transferOwnership(address)": {
        "details": "Transfers ownership of the contract to a new account (`newOwner`). Can only be called by the current owner."
      }
    },
    "version": 1
  },
  "userdoc": {
    "kind": "user",
    "methods": {},
    "version": 1
  }
}